{
  "contractName": "BasicToken",
  "abi": [
    {
      "anonymous": false,
      "inputs": [
        {
          "indexed": true,
          "name": "from",
          "type": "address"
        },
        {
          "indexed": true,
          "name": "to",
          "type": "address"
        },
        {
          "indexed": false,
          "name": "value",
          "type": "uint256"
        }
      ],
      "name": "Transfer",
      "type": "event"
    },
    {
      "constant": true,
      "inputs": [],
      "name": "totalSupply",
      "outputs": [
        {
          "name": "",
          "type": "uint256"
        }
      ],
      "payable": false,
      "stateMutability": "view",
      "type": "function"
    },
    {
      "constant": false,
      "inputs": [
        {
          "name": "_to",
          "type": "address"
        },
        {
          "name": "_value",
          "type": "uint256"
        }
      ],
      "name": "transfer",
      "outputs": [
        {
          "name": "",
          "type": "bool"
        }
      ],
      "payable": false,
      "stateMutability": "nonpayable",
      "type": "function"
    },
    {
      "constant": true,
      "inputs": [
        {
          "name": "_owner",
          "type": "address"
        }
      ],
      "name": "balanceOf",
      "outputs": [
        {
          "name": "",
          "type": "uint256"
        }
      ],
      "payable": false,
      "stateMutability": "view",
      "type": "function"
    }
  ],
  "bytecode": "0x608060405234801561001057600080fd5b50610423806100206000396000f300608060405260043610610057576000357c0100000000000000000000000000000000000000000000000000000000900463ffffffff16806318160ddd1461005c57806370a0823114610087578063a9059cbb146100de575b600080fd5b34801561006857600080fd5b50610071610143565b6040518082815260200191505060405180910390f35b34801561009357600080fd5b506100c8600480360381019080803573ffffffffffffffffffffffffffffffffffffffff16906020019092919050505061014d565b6040518082815260200191505060405180910390f35b3480156100ea57600080fd5b50610129600480360381019080803573ffffffffffffffffffffffffffffffffffffffff16906020019092919080359060200190929190505050610195565b604051808215151515815260200191505060405180910390f35b6000600154905090565b60008060008373ffffffffffffffffffffffffffffffffffffffff1673ffffffffffffffffffffffffffffffffffffffff168152602001908152602001600020549050919050565b60008060003373ffffffffffffffffffffffffffffffffffffffff1673ffffffffffffffffffffffffffffffffffffffff1681526020019081526020016000205482111515156101e457600080fd5b600073ffffffffffffffffffffffffffffffffffffffff168373ffffffffffffffffffffffffffffffffffffffff161415151561022057600080fd5b610271826000803373ffffffffffffffffffffffffffffffffffffffff1673ffffffffffffffffffffffffffffffffffffffff168152602001908152602001600020546103b590919063ffffffff16565b6000803373ffffffffffffffffffffffffffffffffffffffff1673ffffffffffffffffffffffffffffffffffffffff16815260200190815260200160002081905550610304826000808673ffffffffffffffffffffffffffffffffffffffff1673ffffffffffffffffffffffffffffffffffffffff168152602001908152602001600020546103d690919063ffffffff16565b6000808573ffffffffffffffffffffffffffffffffffffffff1673ffffffffffffffffffffffffffffffffffffffff168152602001908152602001600020819055508273ffffffffffffffffffffffffffffffffffffffff163373ffffffffffffffffffffffffffffffffffffffff167fddf252ad1be2c89b69c2b068fc378daa952ba7f163c4a11628f55a4df523b3ef846040518082815260200191505060405180910390a36001905092915050565b6000808383111515156103c757600080fd5b82840390508091505092915050565b60008082840190508381101515156103ed57600080fd5b80915050929150505600a165627a7a7230582047635ce810c9bbf9a8b573008fc93ed394dea2c4d95491c8c760e79e81f04c0b0029",
  "source": "//solium-disable linebreak-style\r\npragma solidity ^0.4.25;\r\n\r\nimport \"./SafeMath.sol\";\r\nimport \"./ERC20Basic.sol\";\r\n\r\ncontract BasicToken is ERC20Basic {\r\n    using SafeMath\r\n    for uint256;\r\n\r\n    mapping(address => uint256) internal balances;\r\n\r\n    uint256 internal totalSupply_;\r\n\r\n    /**\r\n     * @dev Total number of tokens in existence\r\n     */\r\n    function totalSupply() public view returns(uint256) {\r\n        return totalSupply_;\r\n    }\r\n\r\n    /**\r\n     * @dev Transfer token for a specified address\r\n     * @param _to The address to transfer to.\r\n     * @param _value The amount to be transferred.\r\n     */\r\n    function transfer(address _to, uint256 _value) public returns(bool) {\r\n        require(_value <= balances[msg.sender]);\r\n        require(_to != address(0));\r\n\r\n        balances[msg.sender] = balances[msg.sender].sub(_value);\r\n        balances[_to] = balances[_to].add(_value);\r\n        emit Transfer(msg.sender, _to, _value);\r\n        return true;\r\n    }\r\n\r\n    /**\r\n     * @dev Gets the balance of the specified address.\r\n     * @param _owner The address to query the the balance of.\r\n     * @return An uint256 representing the amount owned by the passed address.\r\n     */\r\n    function balanceOf(address _owner) public view returns(uint256) {\r\n        return balances[_owner];\r\n    }\r\n\r\n}\r\n",
  "sourcePath": "C:\\Users\\steve\\Documents\\GitHub\\CAELUM\\Caelum-token\\contracts\\libs\\BasicToken.sol",
  "compiler": {
    "name": "solc",
    "version": "0.4.25+commit.59dbf8f1.Emscripten.clang"
  },
  "schemaVersion": "2.0.1",
  "updatedAt": "2018-10-28T12:24:12.577Z"
}