{
  "contractName": "CaelumAcceptERC20",
  "abi": [
    {
      "constant": true,
      "inputs": [
        {
          "name": "",
          "type": "uint256"
        }
      ],
      "name": "tokensList",
      "outputs": [
        {
          "name": "",
          "type": "address"
        }
      ],
      "payable": false,
      "stateMutability": "view",
      "type": "function"
    },
    {
      "constant": true,
      "inputs": [
        {
          "name": "",
          "type": "address"
        },
        {
          "name": "",
          "type": "address"
        }
      ],
      "name": "tokens",
      "outputs": [
        {
          "name": "",
          "type": "uint256"
        }
      ],
      "payable": false,
      "stateMutability": "view",
      "type": "function"
    },
    {
      "constant": false,
      "inputs": [],
      "name": "renounceOwnership",
      "outputs": [],
      "payable": false,
      "stateMutability": "nonpayable",
      "type": "function"
    },
    {
      "constant": true,
      "inputs": [],
      "name": "owner",
      "outputs": [
        {
          "name": "",
          "type": "address"
        }
      ],
      "payable": false,
      "stateMutability": "view",
      "type": "function"
    },
    {
      "constant": true,
      "inputs": [],
      "name": "DataVault",
      "outputs": [
        {
          "name": "",
          "type": "address"
        }
      ],
      "payable": false,
      "stateMutability": "view",
      "type": "function"
    },
    {
      "constant": false,
      "inputs": [
        {
          "name": "_newOwner",
          "type": "address"
        }
      ],
      "name": "transferOwnership",
      "outputs": [],
      "payable": false,
      "stateMutability": "nonpayable",
      "type": "function"
    },
    {
      "anonymous": false,
      "inputs": [
        {
          "indexed": false,
          "name": "token",
          "type": "address"
        },
        {
          "indexed": false,
          "name": "user",
          "type": "address"
        },
        {
          "indexed": false,
          "name": "amount",
          "type": "uint256"
        },
        {
          "indexed": false,
          "name": "balance",
          "type": "uint256"
        }
      ],
      "name": "Deposit",
      "type": "event"
    },
    {
      "anonymous": false,
      "inputs": [
        {
          "indexed": false,
          "name": "token",
          "type": "address"
        },
        {
          "indexed": false,
          "name": "user",
          "type": "address"
        },
        {
          "indexed": false,
          "name": "amount",
          "type": "uint256"
        },
        {
          "indexed": false,
          "name": "balance",
          "type": "uint256"
        }
      ],
      "name": "Withdraw",
      "type": "event"
    },
    {
      "anonymous": false,
      "inputs": [
        {
          "indexed": true,
          "name": "previousOwner",
          "type": "address"
        }
      ],
      "name": "OwnershipRenounced",
      "type": "event"
    },
    {
      "anonymous": false,
      "inputs": [
        {
          "indexed": true,
          "name": "previousOwner",
          "type": "address"
        },
        {
          "indexed": true,
          "name": "newOwner",
          "type": "address"
        }
      ],
      "name": "OwnershipTransferred",
      "type": "event"
    },
    {
      "constant": false,
      "inputs": [],
      "name": "addOwnToken",
      "outputs": [
        {
          "name": "",
          "type": "bool"
        }
      ],
      "payable": false,
      "stateMutability": "nonpayable",
      "type": "function"
    },
    {
      "constant": true,
      "inputs": [],
      "name": "listAcceptedTokens",
      "outputs": [
        {
          "name": "",
          "type": "address[]"
        }
      ],
      "payable": false,
      "stateMutability": "view",
      "type": "function"
    },
    {
      "constant": true,
      "inputs": [
        {
          "name": "token",
          "type": "address"
        }
      ],
      "name": "getTokenDetails",
      "outputs": [
        {
          "name": "ad",
          "type": "address"
        },
        {
          "name": "required",
          "type": "uint256"
        },
        {
          "name": "active",
          "type": "bool"
        },
        {
          "name": "valid",
          "type": "uint256"
        }
      ],
      "payable": false,
      "stateMutability": "view",
      "type": "function"
    },
    {
      "constant": false,
      "inputs": [
        {
          "name": "token",
          "type": "address"
        },
        {
          "name": "amount",
          "type": "uint256"
        }
      ],
      "name": "depositCollateral",
      "outputs": [],
      "payable": false,
      "stateMutability": "nonpayable",
      "type": "function"
    },
    {
      "constant": false,
      "inputs": [
        {
          "name": "token",
          "type": "address"
        },
        {
          "name": "amount",
          "type": "uint256"
        }
      ],
      "name": "withdrawCollateral",
      "outputs": [],
      "payable": false,
      "stateMutability": "nonpayable",
      "type": "function"
    },
    {
      "constant": false,
      "inputs": [
        {
          "name": "_masternodeContract",
          "type": "address"
        }
      ],
      "name": "setDataStorage",
      "outputs": [],
      "payable": false,
      "stateMutability": "nonpayable",
      "type": "function"
    }
  ],
  "bytecode": "0x60806040526001600360006101000a81548160ff021916908315150217905550336000806101000a81548173ffffffffffffffffffffffffffffffffffffffff021916908373ffffffffffffffffffffffffffffffffffffffff16021790555061167d8061006e6000396000f3006080604052600436106100ba576000357c0100000000000000000000000000000000000000000000000000000000900463ffffffff168063047e2b27146100bf578063350c35e914610102578063493953de1461014f5780634d12e34e1461017e578063508493bc146101eb578063715018a6146102625780638843c1ba1461027957806388aa8bee146102e55780638da5cb5b14610381578063a5d5db0c146103d8578063d53ff76f14610425578063f2fde38b1461047c575b600080fd5b3480156100cb57600080fd5b50610100600480360381019080803573ffffffffffffffffffffffffffffffffffffffff1690602001909291905050506104bf565b005b34801561010e57600080fd5b5061014d600480360381019080803573ffffffffffffffffffffffffffffffffffffffff1690602001909291908035906020019092919050505061055e565b005b34801561015b57600080fd5b50610164610925565b604051808215151515815260200191505060405180910390f35b34801561018a57600080fd5b506101a9600480360381019080803590602001909291905050506109d1565b604051808273ffffffffffffffffffffffffffffffffffffffff1673ffffffffffffffffffffffffffffffffffffffff16815260200191505060405180910390f35b3480156101f757600080fd5b5061024c600480360381019080803573ffffffffffffffffffffffffffffffffffffffff169060200190929190803573ffffffffffffffffffffffffffffffffffffffff169060200190929190505050610a0f565b6040518082815260200191505060405180910390f35b34801561026e57600080fd5b50610277610a34565b005b34801561028557600080fd5b5061028e610b36565b6040518080602001828103825283818151815260200191508051906020019060200280838360005b838110156102d15780820151818401526020810190506102b6565b505050509050019250505060405180910390f35b3480156102f157600080fd5b50610326600480360381019080803573ffffffffffffffffffffffffffffffffffffffff169060200190929190505050610bc4565b604051808573ffffffffffffffffffffffffffffffffffffffff1673ffffffffffffffffffffffffffffffffffffffff1681526020018481526020018315151515815260200182815260200194505050505060405180910390f35b34801561038d57600080fd5b50610396610d12565b604051808273ffffffffffffffffffffffffffffffffffffffff1673ffffffffffffffffffffffffffffffffffffffff16815260200191505060405180910390f35b3480156103e457600080fd5b50610423600480360381019080803573ffffffffffffffffffffffffffffffffffffffff16906020019092919080359060200190929190505050610d37565b005b34801561043157600080fd5b5061043a61126f565b604051808273ffffffffffffffffffffffffffffffffffffffff1673ffffffffffffffffffffffffffffffffffffffff16815260200191505060405180910390f35b34801561048857600080fd5b506104bd600480360381019080803573ffffffffffffffffffffffffffffffffffffffff169060200190929190505050611295565b005b6000809054906101000a900473ffffffffffffffffffffffffffffffffffffffff1673ffffffffffffffffffffffffffffffffffffffff163373ffffffffffffffffffffffffffffffffffffffff1614151561051a57600080fd5b80600160006101000a81548173ffffffffffffffffffffffffffffffffffffffff021916908373ffffffffffffffffffffffffffffffffffffffff16021790555050565b6000808373ffffffffffffffffffffffffffffffffffffffff161415151561058557600080fd5b61058e836112fc565b1515610602576040517f08c379a00000000000000000000000000000000000000000000000000000000081526004018080602001828103825260148152602001807f4552433230206e6f7420617574686f726973656400000000000000000000000081525060200191505060405180910390fd5b61060b83611355565b8214151561061857600080fd5b81600460008573ffffffffffffffffffffffffffffffffffffffff1673ffffffffffffffffffffffffffffffffffffffff16815260200190815260200160002060003373ffffffffffffffffffffffffffffffffffffffff1673ffffffffffffffffffffffffffffffffffffffff16815260200190815260200160002054101515156106a357600080fd5b600460008473ffffffffffffffffffffffffffffffffffffffff1673ffffffffffffffffffffffffffffffffffffffff16815260200190815260200160002060003373ffffffffffffffffffffffffffffffffffffffff1673ffffffffffffffffffffffffffffffffffffffff1681526020019081526020016000205490506000600460008573ffffffffffffffffffffffffffffffffffffffff1673ffffffffffffffffffffffffffffffffffffffff16815260200190815260200160002060003373ffffffffffffffffffffffffffffffffffffffff1673ffffffffffffffffffffffffffffffffffffffff16815260200190815260200160002081905550600160009054906101000a900473ffffffffffffffffffffffffffffffffffffffff1673ffffffffffffffffffffffffffffffffffffffff1663c56280b1336040518263ffffffff167c0100000000000000000000000000000000000000000000000000000000028152600401808273ffffffffffffffffffffffffffffffffffffffff1673ffffffffffffffffffffffffffffffffffffffff168152602001915050600060405180830381600087803b15801561086157600080fd5b505af1158015610875573d6000803e3d6000fd5b505050507ff341246adaac6f497bc2a656f546ab9e182111d630394f0c57c710a59a2cb56783338384604051808573ffffffffffffffffffffffffffffffffffffffff1673ffffffffffffffffffffffffffffffffffffffff1681526020018473ffffffffffffffffffffffffffffffffffffffff1673ffffffffffffffffffffffffffffffffffffffff16815260200183815260200182815260200194505050505060405180910390a1505050565b60008060009054906101000a900473ffffffffffffffffffffffffffffffffffffffff1673ffffffffffffffffffffffffffffffffffffffff163373ffffffffffffffffffffffffffffffffffffffff1614151561098257600080fd5b600360009054906101000a900460ff16151561099d57600080fd5b6109af3064746a528800618e946113a1565b6000600360006101000a81548160ff0219169083151502179055506001905090565b6002818154811015156109e057fe5b906000526020600020016000915054906101000a900473ffffffffffffffffffffffffffffffffffffffff1681565b6004602052816000526040600020602052806000526040600020600091509150505481565b6000809054906101000a900473ffffffffffffffffffffffffffffffffffffffff1673ffffffffffffffffffffffffffffffffffffffff163373ffffffffffffffffffffffffffffffffffffffff16141515610a8f57600080fd5b6000809054906101000a900473ffffffffffffffffffffffffffffffffffffffff1673ffffffffffffffffffffffffffffffffffffffff167ff8df31144d9c2f0f6b59d69b8b98abd5459d07f2742c4df920b25aae33c6482060405160405180910390a260008060006101000a81548173ffffffffffffffffffffffffffffffffffffffff021916908373ffffffffffffffffffffffffffffffffffffffff160217905550565b60606002805480602002602001604051908101604052809291908181526020018280548015610bba57602002820191906000526020600020905b8160009054906101000a900473ffffffffffffffffffffffffffffffffffffffff1673ffffffffffffffffffffffffffffffffffffffff1681526020019060010190808311610b70575b5050505050905090565b600080600080600560008673ffffffffffffffffffffffffffffffffffffffff1673ffffffffffffffffffffffffffffffffffffffff16815260200190815260200160002060000160009054906101000a900473ffffffffffffffffffffffffffffffffffffffff16600560008773ffffffffffffffffffffffffffffffffffffffff1673ffffffffffffffffffffffffffffffffffffffff16815260200190815260200160002060010154600560008873ffffffffffffffffffffffffffffffffffffffff1673ffffffffffffffffffffffffffffffffffffffff16815260200190815260200160002060000160149054906101000a900460ff16600560008973ffffffffffffffffffffffffffffffffffffffff1673ffffffffffffffffffffffffffffffffffffffff1681526020019081526020016000206002015493509350935093509193509193565b6000809054906101000a900473ffffffffffffffffffffffffffffffffffffffff1681565b610d40826112fc565b1515610db4576040517f08c379a00000000000000000000000000000000000000000000000000000000081526004018080602001828103825260148152602001807f4552433230206e6f7420617574686f726973656400000000000000000000000081525060200191505060405180910390fd5b610dbd82611355565b81141515610dca57600080fd5b610dd3826114d2565b1515610dde57600080fd5b610e6d81600460008573ffffffffffffffffffffffffffffffffffffffff1673ffffffffffffffffffffffffffffffffffffffff16815260200190815260200160002060003373ffffffffffffffffffffffffffffffffffffffff1673ffffffffffffffffffffffffffffffffffffffff1681526020019081526020016000205461153690919063ffffffff16565b600460008473ffffffffffffffffffffffffffffffffffffffff1673ffffffffffffffffffffffffffffffffffffffff16815260200190815260200160002060003373ffffffffffffffffffffffffffffffffffffffff1673ffffffffffffffffffffffffffffffffffffffff168152602001908152602001600020819055508173ffffffffffffffffffffffffffffffffffffffff166323b872dd3330846040518463ffffffff167c0100000000000000000000000000000000000000000000000000000000028152600401808473ffffffffffffffffffffffffffffffffffffffff1673ffffffffffffffffffffffffffffffffffffffff1681526020018373ffffffffffffffffffffffffffffffffffffffff1673ffffffffffffffffffffffffffffffffffffffff1681526020018281526020019350505050602060405180830381600087803b158015610fc457600080fd5b505af1158015610fd8573d6000803e3d6000fd5b505050506040513d6020811015610fee57600080fd5b81019080805190602001909291905050501515611073576040517f08c379a00000000000000000000000000000000000000000000000000000000081526004018080602001828103825260108152602001807f6572726f72207769746820746f6b656e0000000000000000000000000000000081525060200191505060405180910390fd5b7fdcbc1c05240f31ff3ad067ef1ee35ce4997762752e3a095284754544f4c709d7823383600460008773ffffffffffffffffffffffffffffffffffffffff1673ffffffffffffffffffffffffffffffffffffffff16815260200190815260200160002060003373ffffffffffffffffffffffffffffffffffffffff1673ffffffffffffffffffffffffffffffffffffffff16815260200190815260200160002054604051808573ffffffffffffffffffffffffffffffffffffffff1673ffffffffffffffffffffffffffffffffffffffff1681526020018473ffffffffffffffffffffffffffffffffffffffff1673ffffffffffffffffffffffffffffffffffffffff16815260200183815260200182815260200194505050505060405180910390a1600160009054906101000a900473ffffffffffffffffffffffffffffffffffffffff1673ffffffffffffffffffffffffffffffffffffffff1663d230df6a336040518263ffffffff167c0100000000000000000000000000000000000000000000000000000000028152600401808273ffffffffffffffffffffffffffffffffffffffff1673ffffffffffffffffffffffffffffffffffffffff168152602001915050600060405180830381600087803b15801561125357600080fd5b505af1158015611267573d6000803e3d6000fd5b505050505050565b600160009054906101000a900473ffffffffffffffffffffffffffffffffffffffff1681565b6000809054906101000a900473ffffffffffffffffffffffffffffffffffffffff1673ffffffffffffffffffffffffffffffffffffffff163373ffffffffffffffffffffffffffffffffffffffff161415156112f057600080fd5b6112f981611557565b50565b6000600560008373ffffffffffffffffffffffffffffffffffffffff1673ffffffffffffffffffffffffffffffffffffffff16815260200190815260200160002060000160149054906101000a900460ff169050919050565b6000600560008373ffffffffffffffffffffffffffffffffffffffff1673ffffffffffffffffffffffffffffffffffffffff168152602001908152602001600020600101549050919050565b6000600560008573ffffffffffffffffffffffffffffffffffffffff1673ffffffffffffffffffffffffffffffffffffffff1681526020019081526020016000209050838160000160006101000a81548173ffffffffffffffffffffffffffffffffffffffff021916908373ffffffffffffffffffffffffffffffffffffffff1602179055508281600101819055504281600301819055506201518082024201816002018190555060018160000160146101000a81548160ff02191690831515021790555060028490806001815401808255809150509060018203906000526020600020016000909192909190916101000a81548173ffffffffffffffffffffffffffffffffffffffff021916908373ffffffffffffffffffffffffffffffffffffffff1602179055505050505050565b600080600560008473ffffffffffffffffffffffffffffffffffffffff1673ffffffffffffffffffffffffffffffffffffffff1681526020019081526020016000206002015490508042101561152b5760019150611530565b600091505b50919050565b600080828401905083811015151561154d57600080fd5b8091505092915050565b600073ffffffffffffffffffffffffffffffffffffffff168173ffffffffffffffffffffffffffffffffffffffff161415151561159357600080fd5b8073ffffffffffffffffffffffffffffffffffffffff166000809054906101000a900473ffffffffffffffffffffffffffffffffffffffff1673ffffffffffffffffffffffffffffffffffffffff167f8be0079c531659141344cd1fd0a4f28419497f9722a3daafe3b4186f6b6457e060405160405180910390a3806000806101000a81548173ffffffffffffffffffffffffffffffffffffffff021916908373ffffffffffffffffffffffffffffffffffffffff160217905550505600a165627a7a72305820b6b086f5e0f381b6b1514f55962eb96bfaf2537dbfc645b0f7ddda798f189ef40029",
  "source": "pragma solidity ^0.4.25;\r\n\r\nimport \"./libs/SafeMath.sol\";\r\nimport \"./CaelumModifier.sol\";\r\nimport \"./libs/StandardToken.sol\";\r\nimport \"./interfaces/IRemoteFunctions.sol\";\r\nimport \"./interfaces/ERC20Interface.sol\";\r\n\r\ncontract CaelumAcceptERC20 is Ownable  {\r\n    using SafeMath for uint;\r\n\r\n    IRemoteFunctions public DataVault;\r\n\r\n    address[] public tokensList;\r\n    bool setOwnContract = true;\r\n\r\n    struct _whitelistTokens {\r\n        address tokenAddress;\r\n        bool active;\r\n        uint requiredAmount;\r\n        uint validUntil;\r\n        uint timestamp;\r\n    }\r\n\r\n    mapping(address => mapping(address => uint)) public tokens;\r\n    mapping(address => _whitelistTokens) acceptedTokens;\r\n\r\n    event Deposit(address token, address user, uint amount, uint balance);\r\n    event Withdraw(address token, address user, uint amount, uint balance);\r\n\r\n\r\n\r\n\r\n    /**\r\n     * @notice Allow the dev to set it's own token as accepted payment.\r\n     * @dev Can be hardcoded in the constructor. Given the contract size, we decided to separate it.\r\n     * @return bool\r\n     */\r\n    function addOwnToken() onlyOwner public returns (bool) {\r\n        require(setOwnContract);\r\n        addToWhitelist(this, 5000 * 1e8, 36500);\r\n        setOwnContract = false;\r\n        return true;\r\n    }\r\n\r\n\r\n    /**\r\n     * @notice Add a new token as accepted payment method.\r\n     * @param _token Token contract address.\r\n     * @param _amount Required amount of this Token as collateral\r\n     * @param daysAllowed How many days will we accept this token?\r\n     */\r\n    function addToWhitelist(address _token, uint _amount, uint daysAllowed) internal {\r\n        _whitelistTokens storage newToken = acceptedTokens[_token];\r\n        newToken.tokenAddress = _token;\r\n        newToken.requiredAmount = _amount;\r\n        newToken.timestamp = now;\r\n        newToken.validUntil = now + (daysAllowed * 1 days);\r\n        newToken.active = true;\r\n\r\n        tokensList.push(_token);\r\n    }\r\n\r\n    /**\r\n     * @dev internal function to determine if we accept this token.\r\n     * @param _ad Token contract address\r\n     * @return bool\r\n     */\r\n    function isAcceptedToken(address _ad) internal view returns(bool) {\r\n        return acceptedTokens[_ad].active;\r\n    }\r\n\r\n    /**\r\n     * @dev internal function to determine the requiredAmount for a specific token.\r\n     * @param _ad Token contract address\r\n     * @return bool\r\n     */\r\n    function getAcceptedTokenAmount(address _ad) internal view returns(uint) {\r\n        return acceptedTokens[_ad].requiredAmount;\r\n    }\r\n\r\n    /**\r\n     * @dev internal function to determine if the token is still accepted timewise.\r\n     * @param _ad Token contract address\r\n     * @return bool\r\n     */\r\n    function isValid(address _ad) internal view returns(bool) {\r\n        uint endTime = acceptedTokens[_ad].validUntil;\r\n        if (block.timestamp < endTime) return true;\r\n        return false;\r\n    }\r\n\r\n    /**\r\n     * @notice Returns an array of all accepted token. You can get more details by calling getTokenDetails function with this address.\r\n     * @return array Address\r\n     */\r\n    function listAcceptedTokens() public view returns(address[]) {\r\n        return tokensList;\r\n    }\r\n\r\n    /**\r\n     * @notice Returns a full list of the token details\r\n     * @param token Token contract address\r\n     */\r\n    function getTokenDetails(address token) public view returns(address ad,uint required, bool active, uint valid) {\r\n        return (acceptedTokens[token].tokenAddress, acceptedTokens[token].requiredAmount,acceptedTokens[token].active, acceptedTokens[token].validUntil);\r\n    }\r\n\r\n    /**\r\n     * @notice Public function that allows any user to deposit accepted tokens as collateral to become a masternode.\r\n     * @param token Token contract address\r\n     * @param amount Amount to deposit\r\n     */\r\n    function depositCollateral(address token, uint amount) public {\r\n        require(isAcceptedToken(token), \"ERC20 not authorised\");  // Should be a token from our list\r\n        require(amount == getAcceptedTokenAmount(token));         // The amount needs to match our set amount\r\n        require(isValid(token));                                  // It should be called within the setup timeframe\r\n\r\n        tokens[token][msg.sender] = tokens[token][msg.sender].add(amount);\r\n\r\n        require(StandardToken(token).transferFrom(msg.sender, this, amount), \"error with token\");\r\n        emit Deposit(token, msg.sender, amount, tokens[token][msg.sender]);\r\n\r\n        DataVault._externalAddMasternode(msg.sender);\r\n    }\r\n\r\n\r\n    /**\r\n     * @notice Public function that allows any user to withdraw deposited tokens and stop as masternode\r\n     * @param token Token contract address\r\n     * @param amount Amount to withdraw\r\n     */\r\n    function withdrawCollateral(address token, uint amount) public {\r\n        require(token != 0);                                        // token should be an actual address\r\n        require(isAcceptedToken(token), \"ERC20 not authorised\");    // Should be a token from our list\r\n        require(amount == getAcceptedTokenAmount(token));           // The amount needs to match our set amount, allow only one withdrawal at a time.\r\n        require(tokens[token][msg.sender] >= amount);               // The owner must own at least this amount of tokens.\r\n\r\n        uint amountToWithdraw = tokens[token][msg.sender];\r\n        tokens[token][msg.sender] = 0;\r\n\r\n        DataVault._externalStopMasternode(msg.sender);\r\n\r\n        //if (!StandardToken(token).transfer(msg.sender, amountToWithdraw)) revert(\"error msg\");\r\n        emit Withdraw(token, msg.sender, amountToWithdraw, amountToWithdraw);\r\n    }\r\n\r\n    function setDataStorage (address _masternodeContract) onlyOwner public {\r\n        DataVault = IRemoteFunctions(_masternodeContract);\r\n    }\r\n}\r\n",
  "sourcePath": "C:\\Users\\steve\\Documents\\GitHub\\CAELUM\\Caelum-token\\contracts\\CaelumAcceptERC20.sol",
  "compiler": {
    "name": "solc",
    "version": "0.4.25+commit.59dbf8f1.Emscripten.clang"
  },
  "schemaVersion": "2.0.1",
  "updatedAt": "2018-10-28T10:06:56.977Z"
}