{
  "contractName": "CaelumMasternodeImproved",
  "abi": [
    {
      "constant": true,
      "inputs": [],
      "name": "_contract_miner",
      "outputs": [
        {
          "name": "",
          "type": "address"
        }
      ],
      "payable": false,
      "stateMutability": "view",
      "type": "function"
    },
    {
      "constant": true,
      "inputs": [],
      "name": "rewardsProofOfWork",
      "outputs": [
        {
          "name": "",
          "type": "uint256"
        }
      ],
      "payable": false,
      "stateMutability": "view",
      "type": "function"
    },
    {
      "constant": true,
      "inputs": [],
      "name": "masternodeCandidate",
      "outputs": [
        {
          "name": "",
          "type": "uint256"
        }
      ],
      "payable": false,
      "stateMutability": "view",
      "type": "function"
    },
    {
      "constant": true,
      "inputs": [],
      "name": "miningEpoch",
      "outputs": [
        {
          "name": "",
          "type": "uint256"
        }
      ],
      "payable": false,
      "stateMutability": "view",
      "type": "function"
    },
    {
      "constant": false,
      "inputs": [
        {
          "name": "_contract",
          "type": "address"
        }
      ],
      "name": "setMiningContract",
      "outputs": [],
      "payable": false,
      "stateMutability": "nonpayable",
      "type": "function"
    },
    {
      "constant": false,
      "inputs": [],
      "name": "renounceOwnership",
      "outputs": [],
      "payable": false,
      "stateMutability": "nonpayable",
      "type": "function"
    },
    {
      "constant": true,
      "inputs": [
        {
          "name": "",
          "type": "uint256"
        }
      ],
      "name": "masternodeByIndex",
      "outputs": [
        {
          "name": "accountOwner",
          "type": "address"
        },
        {
          "name": "isActive",
          "type": "bool"
        },
        {
          "name": "isTeamMember",
          "type": "bool"
        },
        {
          "name": "storedIndex",
          "type": "uint256"
        },
        {
          "name": "startingRound",
          "type": "uint256"
        },
        {
          "name": "nodeCount",
          "type": "uint256"
        }
      ],
      "payable": false,
      "stateMutability": "view",
      "type": "function"
    },
    {
      "constant": false,
      "inputs": [
        {
          "name": "_contract",
          "type": "address"
        }
      ],
      "name": "setMasternodeContract",
      "outputs": [],
      "payable": false,
      "stateMutability": "nonpayable",
      "type": "function"
    },
    {
      "constant": true,
      "inputs": [],
      "name": "owner",
      "outputs": [
        {
          "name": "",
          "type": "address"
        }
      ],
      "payable": false,
      "stateMutability": "view",
      "type": "function"
    },
    {
      "constant": true,
      "inputs": [],
      "name": "masternodeRound",
      "outputs": [
        {
          "name": "",
          "type": "uint256"
        }
      ],
      "payable": false,
      "stateMutability": "view",
      "type": "function"
    },
    {
      "constant": true,
      "inputs": [
        {
          "name": "",
          "type": "address"
        }
      ],
      "name": "userByAddress",
      "outputs": [
        {
          "name": "accountOwner",
          "type": "address"
        },
        {
          "name": "isActive",
          "type": "bool"
        },
        {
          "name": "isTeamMember",
          "type": "bool"
        },
        {
          "name": "storedIndex",
          "type": "uint256"
        },
        {
          "name": "startingRound",
          "type": "uint256"
        },
        {
          "name": "nodeCount",
          "type": "uint256"
        }
      ],
      "payable": false,
      "stateMutability": "view",
      "type": "function"
    },
    {
      "constant": true,
      "inputs": [],
      "name": "_contract_masternode",
      "outputs": [
        {
          "name": "",
          "type": "address"
        }
      ],
      "payable": false,
      "stateMutability": "view",
      "type": "function"
    },
    {
      "constant": false,
      "inputs": [
        {
          "name": "_contract",
          "type": "address"
        }
      ],
      "name": "setTokenContract",
      "outputs": [],
      "payable": false,
      "stateMutability": "nonpayable",
      "type": "function"
    },
    {
      "constant": true,
      "inputs": [],
      "name": "_contract_token",
      "outputs": [
        {
          "name": "",
          "type": "address"
        }
      ],
      "payable": false,
      "stateMutability": "view",
      "type": "function"
    },
    {
      "constant": true,
      "inputs": [],
      "name": "MINING_PHASE_DURATION_BLOCKS",
      "outputs": [
        {
          "name": "",
          "type": "uint256"
        }
      ],
      "payable": false,
      "stateMutability": "view",
      "type": "function"
    },
    {
      "constant": true,
      "inputs": [],
      "name": "rewardsMasternode",
      "outputs": [
        {
          "name": "",
          "type": "uint256"
        }
      ],
      "payable": false,
      "stateMutability": "view",
      "type": "function"
    },
    {
      "constant": true,
      "inputs": [],
      "name": "masternodeIDcounter",
      "outputs": [
        {
          "name": "",
          "type": "uint256"
        }
      ],
      "payable": false,
      "stateMutability": "view",
      "type": "function"
    },
    {
      "constant": true,
      "inputs": [],
      "name": "userCounter",
      "outputs": [
        {
          "name": "",
          "type": "uint256"
        }
      ],
      "payable": false,
      "stateMutability": "view",
      "type": "function"
    },
    {
      "constant": false,
      "inputs": [
        {
          "name": "_newOwner",
          "type": "address"
        }
      ],
      "name": "transferOwnership",
      "outputs": [],
      "payable": false,
      "stateMutability": "nonpayable",
      "type": "function"
    },
    {
      "anonymous": false,
      "inputs": [
        {
          "indexed": false,
          "name": "candidateAddress",
          "type": "address"
        },
        {
          "indexed": false,
          "name": "timeStamp",
          "type": "uint256"
        }
      ],
      "name": "NewMasternode",
      "type": "event"
    },
    {
      "anonymous": false,
      "inputs": [
        {
          "indexed": false,
          "name": "candidateAddress",
          "type": "address"
        },
        {
          "indexed": false,
          "name": "timeStamp",
          "type": "uint256"
        }
      ],
      "name": "RemovedMasternode",
      "type": "event"
    },
    {
      "anonymous": false,
      "inputs": [
        {
          "indexed": true,
          "name": "previousOwner",
          "type": "address"
        }
      ],
      "name": "OwnershipRenounced",
      "type": "event"
    },
    {
      "anonymous": false,
      "inputs": [
        {
          "indexed": true,
          "name": "previousOwner",
          "type": "address"
        },
        {
          "indexed": true,
          "name": "newOwner",
          "type": "address"
        }
      ],
      "name": "OwnershipTransferred",
      "type": "event"
    },
    {
      "constant": false,
      "inputs": [
        {
          "name": "_genesis",
          "type": "address"
        },
        {
          "name": "_team",
          "type": "bool"
        }
      ],
      "name": "addGenesis",
      "outputs": [],
      "payable": false,
      "stateMutability": "nonpayable",
      "type": "function"
    },
    {
      "constant": false,
      "inputs": [],
      "name": "closeGenesis",
      "outputs": [],
      "payable": false,
      "stateMutability": "nonpayable",
      "type": "function"
    },
    {
      "constant": false,
      "inputs": [
        {
          "name": "_candidate",
          "type": "address"
        }
      ],
      "name": "addMasternode",
      "outputs": [],
      "payable": false,
      "stateMutability": "nonpayable",
      "type": "function"
    },
    {
      "constant": false,
      "inputs": [
        {
          "name": "_index",
          "type": "uint256"
        }
      ],
      "name": "updateMasternode",
      "outputs": [
        {
          "name": "",
          "type": "bool"
        }
      ],
      "payable": false,
      "stateMutability": "nonpayable",
      "type": "function"
    },
    {
      "constant": false,
      "inputs": [
        {
          "name": "_candidate",
          "type": "address"
        }
      ],
      "name": "updateMasternodeAsTeamMember",
      "outputs": [
        {
          "name": "",
          "type": "bool"
        }
      ],
      "payable": false,
      "stateMutability": "nonpayable",
      "type": "function"
    },
    {
      "constant": false,
      "inputs": [
        {
          "name": "_index",
          "type": "uint256"
        }
      ],
      "name": "deleteMasternode",
      "outputs": [],
      "payable": false,
      "stateMutability": "nonpayable",
      "type": "function"
    },
    {
      "constant": true,
      "inputs": [
        {
          "name": "_candidate",
          "type": "address"
        }
      ],
      "name": "getLastActiveBy",
      "outputs": [
        {
          "name": "",
          "type": "uint256"
        }
      ],
      "payable": false,
      "stateMutability": "view",
      "type": "function"
    },
    {
      "constant": true,
      "inputs": [
        {
          "name": "_candidate",
          "type": "address"
        }
      ],
      "name": "userHasActiveNodes",
      "outputs": [
        {
          "name": "",
          "type": "bool"
        }
      ],
      "payable": false,
      "stateMutability": "view",
      "type": "function"
    },
    {
      "constant": false,
      "inputs": [],
      "name": "setMasternodeCandidate",
      "outputs": [
        {
          "name": "",
          "type": "address"
        }
      ],
      "payable": false,
      "stateMutability": "nonpayable",
      "type": "function"
    },
    {
      "constant": true,
      "inputs": [],
      "name": "getFollowingCandidate",
      "outputs": [
        {
          "name": "_address",
          "type": "address"
        }
      ],
      "payable": false,
      "stateMutability": "view",
      "type": "function"
    },
    {
      "constant": false,
      "inputs": [],
      "name": "calculateRewardStructures",
      "outputs": [],
      "payable": false,
      "stateMutability": "nonpayable",
      "type": "function"
    },
    {
      "constant": false,
      "inputs": [],
      "name": "_arrangeMasternodeFlow",
      "outputs": [],
      "payable": false,
      "stateMutability": "nonpayable",
      "type": "function"
    },
    {
      "constant": true,
      "inputs": [
        {
          "name": "_candidate",
          "type": "address"
        }
      ],
      "name": "isMasternodeOwner",
      "outputs": [
        {
          "name": "",
          "type": "bool"
        }
      ],
      "payable": false,
      "stateMutability": "view",
      "type": "function"
    },
    {
      "constant": true,
      "inputs": [
        {
          "name": "_candidate",
          "type": "address"
        }
      ],
      "name": "belongsToUser",
      "outputs": [
        {
          "name": "",
          "type": "uint256[]"
        }
      ],
      "payable": false,
      "stateMutability": "view",
      "type": "function"
    },
    {
      "constant": true,
      "inputs": [
        {
          "name": "_candidate",
          "type": "address"
        }
      ],
      "name": "getLastPerUser",
      "outputs": [
        {
          "name": "",
          "type": "uint256"
        }
      ],
      "payable": false,
      "stateMutability": "view",
      "type": "function"
    },
    {
      "constant": true,
      "inputs": [
        {
          "name": "_index",
          "type": "uint256"
        }
      ],
      "name": "getUserFromID",
      "outputs": [
        {
          "name": "",
          "type": "address"
        }
      ],
      "payable": false,
      "stateMutability": "view",
      "type": "function"
    },
    {
      "constant": true,
      "inputs": [],
      "name": "getMiningReward",
      "outputs": [
        {
          "name": "",
          "type": "uint256"
        }
      ],
      "payable": false,
      "stateMutability": "view",
      "type": "function"
    },
    {
      "constant": true,
      "inputs": [
        {
          "name": "_index",
          "type": "uint256"
        }
      ],
      "name": "masternodeInfo",
      "outputs": [
        {
          "name": "",
          "type": "address"
        },
        {
          "name": "",
          "type": "bool"
        },
        {
          "name": "",
          "type": "uint256"
        },
        {
          "name": "",
          "type": "uint256"
        }
      ],
      "payable": false,
      "stateMutability": "view",
      "type": "function"
    },
    {
      "constant": true,
      "inputs": [],
      "name": "contractProgress",
      "outputs": [
        {
          "name": "epoch",
          "type": "uint256"
        },
        {
          "name": "candidate",
          "type": "uint256"
        },
        {
          "name": "round",
          "type": "uint256"
        },
        {
          "name": "miningepoch",
          "type": "uint256"
        },
        {
          "name": "globalreward",
          "type": "uint256"
        },
        {
          "name": "powreward",
          "type": "uint256"
        },
        {
          "name": "masternodereward",
          "type": "uint256"
        },
        {
          "name": "usercount",
          "type": "uint256"
        }
      ],
      "payable": false,
      "stateMutability": "view",
      "type": "function"
    },
    {
      "constant": false,
      "inputs": [],
      "name": "getDataFromContract",
      "outputs": [
        {
          "name": "",
          "type": "uint256"
        }
      ],
      "payable": false,
      "stateMutability": "nonpayable",
      "type": "function"
    }
  ],
  "bytecode": "0x6080604052600060065560006007556000600855611194600a556000600e60006101000a81548160ff021916908315150217905550737600bf5112945f9f006c216d5d6db0df2806edc6600e60016101000a81548173ffffffffffffffffffffffffffffffffffffffff021916908373ffffffffffffffffffffffffffffffffffffffff160217905550336000806101000a81548173ffffffffffffffffffffffffffffffffffffffff021916908373ffffffffffffffffffffffffffffffffffffffff16021790555061223f806100d86000396000f3006080604052600436106101e2576000357c0100000000000000000000000000000000000000000000000000000000900463ffffffff168062822599146101e75780630de33210146102145780631ad93a9b1461026b5780632730e4a2146102965780632debc549146102ad578063372210d11461031a5780633a74c05b14610369578063448a0017146103ae578063490203a7146103d95780634e56925f1461040457806355e97e931461045f57806364ef6dd414610476578063702f5321146104a1578063715018a6146104e45780637558d81e146104fb5780637d394f90146105575780638319ebfb1461059a5780638d114dd3146106325780638da5cb5b146106755780638f88a00e146106cc57806390ce0822146106e3578063989e5ea91461070e5780639fc75354146107bc578063a73c52e714610817578063aad5b4ae1461086e578063acdee567146108c5578063b6da1fbe1461091c578063bb8bedc914610977578063bbcd5bbe146109ce578063bd8a79d514610a11578063be550be414610a68578063c325ae4e14610abf578063d632cb3e14610b57578063e1eca32714610b82578063e6f76fe814610bad578063e7a6651814610bd8578063eae445ed14610c03578063f0c37a5914610c89578063f2fde38b14610cb4575b600080fd5b3480156101f357600080fd5b5061021260048036038101908080359060200190929190505050610cf7565b005b34801561022057600080fd5b50610229610e7c565b604051808273ffffffffffffffffffffffffffffffffffffffff1673ffffffffffffffffffffffffffffffffffffffff16815260200191505060405180910390f35b34801561027757600080fd5b50610280610ea2565b6040518082815260200191505060405180910390f35b3480156102a257600080fd5b506102ab610ea8565b005b3480156102b957600080fd5b506102d860048036038101908080359060200190929190505050610ecd565b604051808273ffffffffffffffffffffffffffffffffffffffff1673ffffffffffffffffffffffffffffffffffffffff16815260200191505060405180910390f35b34801561032657600080fd5b50610367600480360381019080803573ffffffffffffffffffffffffffffffffffffffff169060200190929190803515159060200190929190505050610f0d565b005b34801561037557600080fd5b5061039460048036038101908080359060200190929190505050610f4e565b604051808215151515815260200191505060405180910390f35b3480156103ba57600080fd5b506103c3610f7f565b6040518082815260200191505060405180910390f35b3480156103e557600080fd5b506103ee610f85565b6040518082815260200191505060405180910390f35b34801561041057600080fd5b50610445600480360381019080803573ffffffffffffffffffffffffffffffffffffffff169060200190929190505050610f92565b604051808215151515815260200191505060405180910390f35b34801561046b57600080fd5b50610474610ff8565b005b34801561048257600080fd5b5061048b611015565b6040518082815260200191505060405180910390f35b3480156104ad57600080fd5b506104e2600480360381019080803573ffffffffffffffffffffffffffffffffffffffff16906020019092919050505061101b565b005b3480156104f057600080fd5b506104f96110ba565b005b34801561050757600080fd5b506105106111bc565b604051808981526020018881526020018781526020018681526020018581526020018481526020018381526020018281526020019850505050505050505060405180910390f35b34801561056357600080fd5b50610598600480360381019080803573ffffffffffffffffffffffffffffffffffffffff169060200190929190505050611201565b005b3480156105a657600080fd5b506105c5600480360381019080803590602001909291905050506114d0565b604051808773ffffffffffffffffffffffffffffffffffffffff1673ffffffffffffffffffffffffffffffffffffffff1681526020018615151515815260200185151515158152602001848152602001838152602001828152602001965050505050505060405180910390f35b34801561063e57600080fd5b50610673600480360381019080803573ffffffffffffffffffffffffffffffffffffffff169060200190929190505050611546565b005b34801561068157600080fd5b5061068a6115e5565b604051808273ffffffffffffffffffffffffffffffffffffffff1673ffffffffffffffffffffffffffffffffffffffff16815260200191505060405180910390f35b3480156106d857600080fd5b506106e161160a565b005b3480156106ef57600080fd5b506106f86116bb565b6040518082815260200191505060405180910390f35b34801561071a57600080fd5b5061074f600480360381019080803573ffffffffffffffffffffffffffffffffffffffff1690602001909291905050506116c1565b604051808773ffffffffffffffffffffffffffffffffffffffff1673ffffffffffffffffffffffffffffffffffffffff1681526020018615151515815260200185151515158152602001848152602001838152602001828152602001965050505050505060405180910390f35b3480156107c857600080fd5b506107fd600480360381019080803573ffffffffffffffffffffffffffffffffffffffff169060200190929190505050611737565b604051808215151515815260200191505060405180910390f35b34801561082357600080fd5b50610858600480360381019080803573ffffffffffffffffffffffffffffffffffffffff169060200190929190505050611835565b6040518082815260200191505060405180910390f35b34801561087a57600080fd5b506108836118e0565b604051808273ffffffffffffffffffffffffffffffffffffffff1673ffffffffffffffffffffffffffffffffffffffff16815260200191505060405180910390f35b3480156108d157600080fd5b50610906600480360381019080803573ffffffffffffffffffffffffffffffffffffffff169060200190929190505050611906565b6040518082815260200191505060405180910390f35b34801561092857600080fd5b5061095d600480360381019080803573ffffffffffffffffffffffffffffffffffffffff1690602001909291905050506119a7565b604051808215151515815260200191505060405180910390f35b34801561098357600080fd5b5061098c611a49565b604051808273ffffffffffffffffffffffffffffffffffffffff1673ffffffffffffffffffffffffffffffffffffffff16815260200191505060405180910390f35b3480156109da57600080fd5b50610a0f600480360381019080803573ffffffffffffffffffffffffffffffffffffffff169060200190929190505050611c13565b005b348015610a1d57600080fd5b50610a26611cb2565b604051808273ffffffffffffffffffffffffffffffffffffffff1673ffffffffffffffffffffffffffffffffffffffff16815260200191505060405180910390f35b348015610a7457600080fd5b50610a7d611d91565b604051808273ffffffffffffffffffffffffffffffffffffffff1673ffffffffffffffffffffffffffffffffffffffff16815260200191505060405180910390f35b348015610acb57600080fd5b50610b00600480360381019080803573ffffffffffffffffffffffffffffffffffffffff169060200190929190505050611db7565b6040518080602001828103825283818151815260200191508051906020019060200280838360005b83811015610b43578082015181840152602081019050610b28565b505050509050019250505060405180910390f35b348015610b6357600080fd5b50610b6c611e51565b6040518082815260200191505060405180910390f35b348015610b8e57600080fd5b50610b97611e57565b6040518082815260200191505060405180910390f35b348015610bb957600080fd5b50610bc2611e5d565b6040518082815260200191505060405180910390f35b348015610be457600080fd5b50610bed611e63565b6040518082815260200191505060405180910390f35b348015610c0f57600080fd5b50610c2e60048036038101908080359060200190929190505050611fb6565b604051808573ffffffffffffffffffffffffffffffffffffffff1673ffffffffffffffffffffffffffffffffffffffff1681526020018415151515815260200183815260200182815260200194505050505060405180910390f35b348015610c9557600080fd5b50610c9e612054565b6040518082815260200191505060405180910390f35b348015610cc057600080fd5b50610cf5600480360381019080803573ffffffffffffffffffffffffffffffffffffffff16906020019092919050505061205a565b005b6000610d0282610ecd565b90506000600460008373ffffffffffffffffffffffffffffffffffffffff1673ffffffffffffffffffffffffffffffffffffffff16815260200190815260200160002060000160146101000a81548160ff02191690831515021790555060006005600084815260200190815260200160002060000160146101000a81548160ff021916908315150217905550600460008273ffffffffffffffffffffffffffffffffffffffff1673ffffffffffffffffffffffffffffffffffffffff16815260200190815260200160002060040182815481101515610ddd57fe5b906000526020600020016000905560056000838152602001908152602001600020600080820160006101000a81549073ffffffffffffffffffffffffffffffffffffffff02191690556000820160146101000a81549060ff02191690556000820160156101000a81549060ff0219169055600182016000905560028201600090556003820160009055600482016000610e7691906121cd565b50505050565b600160009054906101000a900473ffffffffffffffffffffffffffffffffffffffff1681565b600c5481565b610eb061160a565b610eb8611a49565b50600b60008154809291906001019190505550565b60006005600083815260200190815260200160002060000160009054906101000a900473ffffffffffffffffffffffffffffffffffffffff169050919050565b600e60009054906101000a900460ff16151515610f2957600080fd5b610f3282611201565b600115158115151415610f4a57610f4882610f92565b505b5050565b6000600560008381526020019081526020016000206002016000815480929190600101919050555060019050919050565b60095481565b600064012a05f200905090565b60006001600460008473ffffffffffffffffffffffffffffffffffffffff1673ffffffffffffffffffffffffffffffffffffffff16815260200190815260200160002060000160156101000a81548160ff02191690831515021790555060019050919050565b6001600e60006101000a81548160ff021916908315150217905550565b600b5481565b6000809054906101000a900473ffffffffffffffffffffffffffffffffffffffff1673ffffffffffffffffffffffffffffffffffffffff163373ffffffffffffffffffffffffffffffffffffffff1614151561107657600080fd5b80600160006101000a81548173ffffffffffffffffffffffffffffffffffffffff021916908373ffffffffffffffffffffffffffffffffffffffff16021790555050565b6000809054906101000a900473ffffffffffffffffffffffffffffffffffffffff1673ffffffffffffffffffffffffffffffffffffffff163373ffffffffffffffffffffffffffffffffffffffff1614151561111557600080fd5b6000809054906101000a900473ffffffffffffffffffffffffffffffffffffffff1673ffffffffffffffffffffffffffffffffffffffff167ff8df31144d9c2f0f6b59d69b8b98abd5459d07f2742c4df920b25aae33c6482060405160405180910390a260008060006101000a81548173ffffffffffffffffffffffffffffffffffffffff021916908373ffffffffffffffffffffffffffffffffffffffff160217905550565b6000806000806000806000806000600954600854600b546111db610f85565b600c54600d54600654879750975097509750975097509750975097509091929394959697565b6001600460008373ffffffffffffffffffffffffffffffffffffffff1673ffffffffffffffffffffffffffffffffffffffff16815260200190815260200160002060000160146101000a81548160ff02191690831515021790555080600460008373ffffffffffffffffffffffffffffffffffffffff1673ffffffffffffffffffffffffffffffffffffffff16815260200190815260200160002060000160006101000a81548173ffffffffffffffffffffffffffffffffffffffff021916908373ffffffffffffffffffffffffffffffffffffffff160217905550600754600460008373ffffffffffffffffffffffffffffffffffffffff1673ffffffffffffffffffffffffffffffffffffffff16815260200190815260200160002060010181905550600160085401600460008373ffffffffffffffffffffffffffffffffffffffff1673ffffffffffffffffffffffffffffffffffffffff16815260200190815260200160002060020181905550600460008273ffffffffffffffffffffffffffffffffffffffff1673ffffffffffffffffffffffffffffffffffffffff1681526020019081526020016000206004016007549080600181540180825580915050906001820390600052602060002001600090919290919091505550600160056000600754815260200190815260200160002060000160146101000a81548160ff0219169083151502179055508060056000600754815260200190815260200160002060000160006101000a81548173ffffffffffffffffffffffffffffffffffffffff021916908373ffffffffffffffffffffffffffffffffffffffff160217905550600754600560006007548152602001908152602001600020600101819055506001600854016005600060075481526020019081526020016000206002018190555060076000815480929190600101919050555060066000815480929190600101919050555050565b60056020528060005260406000206000915090508060000160009054906101000a900473ffffffffffffffffffffffffffffffffffffffff16908060000160149054906101000a900460ff16908060000160159054906101000a900460ff16908060010154908060020154908060030154905086565b6000809054906101000a900473ffffffffffffffffffffffffffffffffffffffff1673ffffffffffffffffffffffffffffffffffffffff163373ffffffffffffffffffffffffffffffffffffffff161415156115a157600080fd5b80600360006101000a81548173ffffffffffffffffffffffffffffffffffffffff021916908373ffffffffffffffffffffffffffffffffffffffff16021790555050565b6000809054906101000a900473ffffffffffffffffffffffffffffffffffffffff1681565b600080600080611618610f85565b9350600a8054600b5481151561162a57fe5b04029250600a83101561165a57600560648581151561164557fe5b0402600c819055506000600d819055506116b5565b605a83111561169457600260648581151561167157fe5b0402600c81905550606260648581151561168757fe5b0402600d819055506116b5565b826064858115156116a157fe5b0402915081840390506116b481836120c1565b5b50505050565b60085481565b60046020528060005260406000206000915090508060000160009054906101000a900473ffffffffffffffffffffffffffffffffffffffff16908060000160149054906101000a900460ff16908060000160159054906101000a900460ff16908060010154908060020154908060030154905086565b600080600460008473ffffffffffffffffffffffffffffffffffffffff1673ffffffffffffffffffffffffffffffffffffffff168152602001908152602001600020600401805490501115156117905760009050611830565b8173ffffffffffffffffffffffffffffffffffffffff16600460008473ffffffffffffffffffffffffffffffffffffffff1673ffffffffffffffffffffffffffffffffffffffff16815260200190815260200160002060000160009054906101000a900473ffffffffffffffffffffffffffffffffffffffff1673ffffffffffffffffffffffffffffffffffffffff16141561182f5760019050611830565b5b919050565b6000600460008373ffffffffffffffffffffffffffffffffffffffff1673ffffffffffffffffffffffffffffffffffffffff1681526020019081526020016000206004016001600460008573ffffffffffffffffffffffffffffffffffffffff1673ffffffffffffffffffffffffffffffffffffffff16815260200190815260200160002060040180549050038154811015156118ce57fe5b90600052602060002001549050919050565b600360009054906101000a900473ffffffffffffffffffffffffffffffffffffffff1681565b60008060008090505b600460008573ffffffffffffffffffffffffffffffffffffffff1673ffffffffffffffffffffffffffffffffffffffff1681526020019081526020016000206004018054905081101561199d57600115156005600083815260200190815260200160002060000160149054906101000a900460ff1615151415611990578091505b808060010191505061190f565b8192505050919050565b60008060008090505b600460008573ffffffffffffffffffffffffffffffffffffffff1673ffffffffffffffffffffffffffffffffffffffff16815260200190815260200160002060040180549050811015611a3f57600115156005600083815260200190815260200160002060000160149054906101000a900460ff1615151415611a3257600191505b80806001019150506119b0565b8192505050919050565b60008060008091505b6000611a5c611cb2565b73ffffffffffffffffffffffffffffffffffffffff161415611b2357600682101515611af0576040517f08c379a00000000000000000000000000000000000000000000000000000000081526004018080602001828103825260148152602001807f4661696c73616665207377697463686564206f6e00000000000000000000000081525060200191505060405180910390fd5b6005821415611b025760009250611c0e565b60016008540160088190555060006009819055508180600101925050611a52565b6001600754036009541415611b475760016008540160088190555060006009819055505b60095490505b600754811015611bfd576005600082815260200190815260200160002060000160149054906101000a900460ff1615611bf05760085460056000838152602001908152602001600020600201541415611bef57611ba981610f4e565b50806009819055506005600082815260200190815260200160002060000160009054906101000a900473ffffffffffffffffffffffffffffffffffffffff169250611c0e565b5b8080600101915050611b4d565b600160085401600881905550600092505b505090565b6000809054906101000a900473ffffffffffffffffffffffffffffffffffffffff1673ffffffffffffffffffffffffffffffffffffffff163373ffffffffffffffffffffffffffffffffffffffff16141515611c6e57600080fd5b80600260006101000a81548173ffffffffffffffffffffffffffffffffffffffff021916908373ffffffffffffffffffffffffffffffffffffffff16021790555050565b60008060008060085492506009549150600160075403821415611cda57600183019250600091505b60095490505b600754811015611d80576005600082815260200190815260200160002060000160149054906101000a900460ff1615611d73578260056000838152602001908152602001600020600201541415611d72578091506005600082815260200190815260200160002060000160009054906101000a900473ffffffffffffffffffffffffffffffffffffffff169350611d8b565b5b8080600101915050611ce0565b600183019250600093505b50505090565b600260009054906101000a900473ffffffffffffffffffffffffffffffffffffffff1681565b6060600460008373ffffffffffffffffffffffffffffffffffffffff1673ffffffffffffffffffffffffffffffffffffffff168152602001908152602001600020600401805480602002602001604051908101604052809291908181526020018280548015611e4557602002820191906000526020600020905b815481526020019060010190808311611e31575b50505050509050919050565b600a5481565b600d5481565b60075481565b600080600080600080600080600080600e60019054906101000a900473ffffffffffffffffffffffffffffffffffffffff1698508873ffffffffffffffffffffffffffffffffffffffff16637558d81e6040518163ffffffff167c010000000000000000000000000000000000000000000000000000000002815260040161010060405180830381600087803b158015611efc57600080fd5b505af1158015611f10573d6000803e3d6000fd5b505050506040513d610100811015611f2757600080fd5b810190808051906020019092919080519060200190929190805190602001909291908051906020019092919080519060200190929190805190602001909291908051906020019092919080519060200190929190505050975097509750975097509750975097508560088190555084600b8190555082600c8190555081600d8190555050505050505050505090565b6000806000806005600086815260200190815260200160002060000160009054906101000a900473ffffffffffffffffffffffffffffffffffffffff166005600087815260200190815260200160002060000160149054906101000a900460ff166005600088815260200190815260200160002060010154600560008981526020019081526020016000206002015493509350935093509193509193565b60065481565b6000809054906101000a900473ffffffffffffffffffffffffffffffffffffffff1673ffffffffffffffffffffffffffffffffffffffff163373ffffffffffffffffffffffffffffffffffffffff161415156120b557600080fd5b6120be816120d3565b50565b80600d8190555081600c819055505050565b600073ffffffffffffffffffffffffffffffffffffffff168173ffffffffffffffffffffffffffffffffffffffff161415151561210f57600080fd5b8073ffffffffffffffffffffffffffffffffffffffff166000809054906101000a900473ffffffffffffffffffffffffffffffffffffffff1673ffffffffffffffffffffffffffffffffffffffff167f8be0079c531659141344cd1fd0a4f28419497f9722a3daafe3b4186f6b6457e060405160405180910390a3806000806101000a81548173ffffffffffffffffffffffffffffffffffffffff021916908373ffffffffffffffffffffffffffffffffffffffff16021790555050565b50805460008255906000526020600020908101906121eb91906121ee565b50565b61221091905b8082111561220c5760008160009055506001016121f4565b5090565b905600a165627a7a723058200dcaea3f9c95839477b5489cfd68ce03278fd67ea01a0ad366394a343ecf54880029",
  "source": "pragma solidity ^0.4.25;\r\n\r\nimport \"./libs/SafeMath.sol\";\r\nimport \"./CaelumModifier.sol\";\r\n\r\ncontract CaelumMasternodeImproved is CaelumModifier {\r\n\r\n    struct MasterNode {\r\n        address accountOwner;\r\n        bool isActive;\r\n        bool isTeamMember;\r\n        uint storedIndex;\r\n        uint startingRound;\r\n        uint nodeCount;\r\n        uint[] indexcounter;\r\n\r\n    }\r\n\r\n    mapping(address => MasterNode) public userByAddress;\r\n    mapping(uint => MasterNode) public masternodeByIndex;\r\n\r\n    uint public userCounter = 0;\r\n    uint public masternodeIDcounter = 0;\r\n    uint public masternodeRound = 0;\r\n    uint public masternodeCandidate;\r\n\r\n    uint public MINING_PHASE_DURATION_BLOCKS = 4500;\r\n\r\n    uint public miningEpoch;\r\n    uint public rewardsProofOfWork;\r\n    uint public rewardsMasternode;\r\n\r\n    bool genesisAdded = false;\r\n\r\n    event NewMasternode(address candidateAddress, uint timeStamp);\r\n    event RemovedMasternode(address candidateAddress, uint timeStamp);\r\n\r\n    function addGenesis(address _genesis, bool _team) public {\r\n        require(!genesisAdded);\r\n\r\n        addMasternode(_genesis);\r\n\r\n        if (_team == true) {updateMasternodeAsTeamMember(_genesis);}\r\n    }\r\n\r\n    function closeGenesis() public {\r\n        genesisAdded = true; // Forever lock this.\r\n    }\r\n\r\n    function addMasternode(address _candidate) public {\r\n\r\n        /**\r\n         * @dev userByAddress is used for general statistic data.\r\n         * All masternode interaction happens by masternodeByIndex!\r\n         */\r\n\r\n        userByAddress[_candidate].isActive = true;\r\n        userByAddress[_candidate].accountOwner = _candidate;\r\n        userByAddress[_candidate].storedIndex = masternodeIDcounter;\r\n        userByAddress[_candidate].startingRound = masternodeRound + 1;\r\n        userByAddress[_candidate].indexcounter.push(masternodeIDcounter);\r\n\r\n        masternodeByIndex[masternodeIDcounter].isActive = true;\r\n        masternodeByIndex[masternodeIDcounter].accountOwner = _candidate;\r\n        masternodeByIndex[masternodeIDcounter].storedIndex = masternodeIDcounter;\r\n        masternodeByIndex[masternodeIDcounter].startingRound = masternodeRound + 1;\r\n\r\n        masternodeIDcounter++;\r\n        userCounter++;\r\n    }\r\n\r\n    function updateMasternode (uint _index) public returns(bool) {\r\n        masternodeByIndex[_index].startingRound++;\r\n        return true;\r\n    }\r\n\r\n    function updateMasternodeAsTeamMember(address _candidate) public returns (bool) {\r\n        userByAddress[_candidate].isTeamMember = true;\r\n        return (true);\r\n    }\r\n\r\n    function deleteMasternode(uint _index) public {\r\n        address getUserFrom = getUserFromID(_index);\r\n        userByAddress[getUserFrom].isActive = false;\r\n        masternodeByIndex[_index].isActive = false;\r\n        delete userByAddress[getUserFrom].indexcounter[_index];\r\n        delete masternodeByIndex[_index];\r\n    }\r\n\r\n    function getLastActiveBy(address _candidate) public view returns (uint) {\r\n\r\n        uint lastFound;\r\n        for (uint i=0; i<userByAddress[_candidate].indexcounter.length ; i++) {\r\n          if (masternodeByIndex[i].isActive == true) {\r\n              lastFound = i;\r\n          }\r\n        }\r\n        return lastFound;\r\n    }\r\n\r\n    function userHasActiveNodes(address _candidate) public view returns (bool) {\r\n\r\n        bool lastFound;\r\n        for (uint i=0; i<userByAddress[_candidate].indexcounter.length ; i++) {\r\n          if (masternodeByIndex[i].isActive == true) {\r\n              lastFound = true;\r\n          }\r\n        }\r\n        return lastFound;\r\n    }\r\n\r\n    function setMasternodeCandidate() public returns(address) {\r\n\r\n        uint hardlimitCounter = 0;\r\n\r\n        while (getFollowingCandidate() == 0x0) {\r\n            // We must return a value not to break the contract. Require is a secondary killswitch now.\r\n            require(hardlimitCounter < 6, \"Failsafe switched on\");\r\n            // Choose if loop over revert/require to terminate the loop and return a 0 address.\r\n            if (hardlimitCounter == 5) return (0);\r\n            masternodeRound = masternodeRound + 1;\r\n            masternodeCandidate = 0;\r\n            hardlimitCounter++;\r\n        }\r\n\r\n        if (masternodeCandidate == masternodeIDcounter - 1) {\r\n            masternodeRound = masternodeRound + 1;\r\n            masternodeCandidate = 0;\r\n        }\r\n\r\n        for (uint i = masternodeCandidate; i < masternodeIDcounter; i++) {\r\n            if (masternodeByIndex[i].isActive) {\r\n                if (masternodeByIndex[i].startingRound == masternodeRound) {\r\n                    updateMasternode(i);\r\n                    masternodeCandidate = i;\r\n                    return (masternodeByIndex[i].accountOwner);\r\n                }\r\n            }\r\n        }\r\n\r\n        masternodeRound = masternodeRound + 1;\r\n        return (0);\r\n\r\n    }\r\n\r\n    function getFollowingCandidate() public view returns(address _address) {\r\n        uint tmpRound = masternodeRound;\r\n        uint tmpCandidate = masternodeCandidate;\r\n\r\n        if (tmpCandidate == masternodeIDcounter - 1) {\r\n            tmpRound = tmpRound + 1;\r\n            tmpCandidate = 0;\r\n        }\r\n\r\n        for (uint i = masternodeCandidate; i < masternodeIDcounter; i++) {\r\n            if (masternodeByIndex[i].isActive) {\r\n                if (masternodeByIndex[i].startingRound == tmpRound) {\r\n                    tmpCandidate = i;\r\n                    return (masternodeByIndex[i].accountOwner);\r\n                }\r\n            }\r\n        }\r\n\r\n        tmpRound = tmpRound + 1;\r\n        return (0);\r\n    }\r\n\r\n    function calculateRewardStructures() public {\r\n        //ToDo: Set\r\n        uint _global_reward_amount = getMiningReward();\r\n        uint getStageOfMining = miningEpoch / MINING_PHASE_DURATION_BLOCKS * 10;\r\n\r\n        if (getStageOfMining < 10) {\r\n            rewardsProofOfWork = _global_reward_amount / 100 * 5;\r\n            rewardsMasternode = 0;\r\n            return;\r\n        }\r\n\r\n        if (getStageOfMining > 90) {\r\n            rewardsProofOfWork = _global_reward_amount / 100 * 2;\r\n            rewardsMasternode = _global_reward_amount / 100 * 98;\r\n            return;\r\n        }\r\n\r\n        uint _mnreward = (_global_reward_amount / 100) * getStageOfMining;\r\n        uint _powreward = (_global_reward_amount - _mnreward);\r\n\r\n        setBaseRewards(_powreward, _mnreward);\r\n    }\r\n\r\n    function setBaseRewards(uint _pow, uint _mn) internal {\r\n        rewardsMasternode = _mn;\r\n        rewardsProofOfWork = _pow;\r\n    }\r\n\r\n    function _arrangeMasternodeFlow() public {\r\n        calculateRewardStructures();\r\n        setMasternodeCandidate();\r\n        miningEpoch++;\r\n    }\r\n\r\n    function isMasternodeOwner(address _candidate) public view returns(bool) {\r\n        if(userByAddress[_candidate].indexcounter.length <= 0) return false;\r\n        if (userByAddress[_candidate].accountOwner == _candidate)\r\n        return true;\r\n    }\r\n\r\n    function belongsToUser(address _candidate) public view returns (uint[]) {\r\n        return userByAddress[_candidate].indexcounter;\r\n    }\r\n\r\n    function getLastPerUser(address _candidate) public view returns (uint) {\r\n        return userByAddress[_candidate].indexcounter[userByAddress[_candidate].indexcounter.length - 1];\r\n    }\r\n\r\n    function getUserFromID(uint _index) public view returns (address) {\r\n        return masternodeByIndex[_index].accountOwner;\r\n    }\r\n\r\n    function getMiningReward() public view returns(uint) {\r\n        return 50 * 1e8;\r\n    }\r\n\r\n    function masternodeInfo(uint _index) public view returns\r\n    (\r\n        address,\r\n        bool,\r\n        uint,\r\n        uint\r\n    )\r\n    {\r\n        return (\r\n            masternodeByIndex[_index].accountOwner,\r\n            masternodeByIndex[_index].isActive,\r\n            masternodeByIndex[_index].storedIndex,\r\n            masternodeByIndex[_index].startingRound\r\n        );\r\n    }\r\n\r\n    address cloneDataFrom = 0x7600bF5112945F9F006c216d5d6db0df2806eDc6;\r\n\r\n    function contractProgress() public view returns\r\n    (\r\n        uint epoch,\r\n        uint candidate,\r\n        uint round,\r\n        uint miningepoch,\r\n        uint globalreward,\r\n        uint powreward,\r\n        uint masternodereward,\r\n        uint usercount\r\n    )\r\n    {\r\n        return (\r\n            0,\r\n            masternodeCandidate,\r\n            masternodeRound,\r\n            miningEpoch,\r\n            getMiningReward(),\r\n            rewardsProofOfWork,\r\n            rewardsMasternode,\r\n            userCounter\r\n        );\r\n    }\r\n\r\n    function getDataFromContract ()  public returns(uint) {\r\n\r\n        CaelumMasternodeImproved prev = CaelumMasternodeImproved(cloneDataFrom);\r\n        (uint epoch,\r\n        uint candidate,\r\n        uint round,\r\n        uint miningepoch,\r\n        uint globalreward,\r\n        uint powreward,\r\n        uint masternodereward,\r\n        uint usercount) = prev.contractProgress();\r\n\r\n\r\n        masternodeRound = round;\r\n        miningEpoch = miningepoch;\r\n        rewardsProofOfWork = powreward;\r\n        rewardsMasternode = masternodereward;\r\n\r\n    }\r\n}\r\n",
  "sourcePath": "C:\\Users\\steve\\Documents\\GitHub\\CAELUM\\Caelum-token\\contracts\\CaelumMasternodeImproved.sol",
  "compiler": {
    "name": "solc",
    "version": "0.4.25+commit.59dbf8f1.Emscripten.clang"
  },
  "schemaVersion": "2.0.1",
  "updatedAt": "2018-10-28T12:36:47.839Z"
}