{
  "contractName": "CaelumMasternode",
  "abi": [
    {
      "constant": false,
      "inputs": [
        {
          "name": "_index",
          "type": "uint256"
        }
      ],
      "name": "deleteMasternode",
      "outputs": [],
      "payable": false,
      "stateMutability": "nonpayable",
      "type": "function"
    },
    {
      "constant": true,
      "inputs": [],
      "name": "_contract_miner",
      "outputs": [
        {
          "name": "",
          "type": "address"
        }
      ],
      "payable": false,
      "stateMutability": "view",
      "type": "function"
    },
    {
      "constant": true,
      "inputs": [],
      "name": "rewardsProofOfWork",
      "outputs": [
        {
          "name": "",
          "type": "uint256"
        }
      ],
      "payable": false,
      "stateMutability": "view",
      "type": "function"
    },
    {
      "constant": false,
      "inputs": [],
      "name": "_arrangeMasternodeFlow",
      "outputs": [],
      "payable": false,
      "stateMutability": "nonpayable",
      "type": "function"
    },
    {
      "constant": true,
      "inputs": [
        {
          "name": "_index",
          "type": "uint256"
        }
      ],
      "name": "getUserFromID",
      "outputs": [
        {
          "name": "",
          "type": "address"
        }
      ],
      "payable": false,
      "stateMutability": "view",
      "type": "function"
    },
    {
      "constant": false,
      "inputs": [
        {
          "name": "_genesis",
          "type": "address"
        },
        {
          "name": "_team",
          "type": "bool"
        }
      ],
      "name": "addGenesis",
      "outputs": [],
      "payable": false,
      "stateMutability": "nonpayable",
      "type": "function"
    },
    {
      "constant": false,
      "inputs": [
        {
          "name": "_index",
          "type": "uint256"
        }
      ],
      "name": "updateMasternode",
      "outputs": [
        {
          "name": "",
          "type": "bool"
        }
      ],
      "payable": false,
      "stateMutability": "nonpayable",
      "type": "function"
    },
    {
      "constant": true,
      "inputs": [],
      "name": "masternodeCandidate",
      "outputs": [
        {
          "name": "",
          "type": "uint256"
        }
      ],
      "payable": false,
      "stateMutability": "view",
      "type": "function"
    },
    {
      "constant": false,
      "inputs": [
        {
          "name": "_candidate",
          "type": "address"
        }
      ],
      "name": "updateMasternodeAsTeamMember",
      "outputs": [
        {
          "name": "",
          "type": "bool"
        }
      ],
      "payable": false,
      "stateMutability": "nonpayable",
      "type": "function"
    },
    {
      "constant": false,
      "inputs": [],
      "name": "closeGenesis",
      "outputs": [],
      "payable": false,
      "stateMutability": "nonpayable",
      "type": "function"
    },
    {
      "constant": true,
      "inputs": [],
      "name": "miningEpoch",
      "outputs": [
        {
          "name": "",
          "type": "uint256"
        }
      ],
      "payable": false,
      "stateMutability": "view",
      "type": "function"
    },
    {
      "constant": false,
      "inputs": [
        {
          "name": "_contract",
          "type": "address"
        }
      ],
      "name": "setMiningContract",
      "outputs": [],
      "payable": false,
      "stateMutability": "nonpayable",
      "type": "function"
    },
    {
      "constant": false,
      "inputs": [],
      "name": "renounceOwnership",
      "outputs": [],
      "payable": false,
      "stateMutability": "nonpayable",
      "type": "function"
    },
    {
      "constant": true,
      "inputs": [],
      "name": "contractProgress",
      "outputs": [
        {
          "name": "epoch",
          "type": "uint256"
        },
        {
          "name": "candidate",
          "type": "uint256"
        },
        {
          "name": "round",
          "type": "uint256"
        },
        {
          "name": "miningepoch",
          "type": "uint256"
        },
        {
          "name": "globalreward",
          "type": "uint256"
        },
        {
          "name": "powreward",
          "type": "uint256"
        },
        {
          "name": "masternodereward",
          "type": "uint256"
        },
        {
          "name": "usercount",
          "type": "uint256"
        }
      ],
      "payable": false,
      "stateMutability": "view",
      "type": "function"
    },
    {
      "constant": false,
      "inputs": [
        {
          "name": "_candidate",
          "type": "address"
        }
      ],
      "name": "addMasternode",
      "outputs": [],
      "payable": false,
      "stateMutability": "nonpayable",
      "type": "function"
    },
    {
      "constant": true,
      "inputs": [
        {
          "name": "",
          "type": "uint256"
        }
      ],
      "name": "masternodeByIndex",
      "outputs": [
        {
          "name": "accountOwner",
          "type": "address"
        },
        {
          "name": "isActive",
          "type": "bool"
        },
        {
          "name": "isTeamMember",
          "type": "bool"
        },
        {
          "name": "storedIndex",
          "type": "uint256"
        },
        {
          "name": "startingRound",
          "type": "uint256"
        },
        {
          "name": "nodeCount",
          "type": "uint256"
        }
      ],
      "payable": false,
      "stateMutability": "view",
      "type": "function"
    },
    {
      "constant": false,
      "inputs": [
        {
          "name": "_contract",
          "type": "address"
        }
      ],
      "name": "setMasternodeContract",
      "outputs": [],
      "payable": false,
      "stateMutability": "nonpayable",
      "type": "function"
    },
    {
      "constant": true,
      "inputs": [],
      "name": "owner",
      "outputs": [
        {
          "name": "",
          "type": "address"
        }
      ],
      "payable": false,
      "stateMutability": "view",
      "type": "function"
    },
    {
      "constant": false,
      "inputs": [],
      "name": "calculateRewardStructures",
      "outputs": [],
      "payable": false,
      "stateMutability": "nonpayable",
      "type": "function"
    },
    {
      "constant": true,
      "inputs": [],
      "name": "masternodeRound",
      "outputs": [
        {
          "name": "",
          "type": "uint256"
        }
      ],
      "payable": false,
      "stateMutability": "view",
      "type": "function"
    },
    {
      "constant": true,
      "inputs": [
        {
          "name": "",
          "type": "address"
        }
      ],
      "name": "userByAddress",
      "outputs": [
        {
          "name": "accountOwner",
          "type": "address"
        },
        {
          "name": "isActive",
          "type": "bool"
        },
        {
          "name": "isTeamMember",
          "type": "bool"
        },
        {
          "name": "storedIndex",
          "type": "uint256"
        },
        {
          "name": "startingRound",
          "type": "uint256"
        },
        {
          "name": "nodeCount",
          "type": "uint256"
        }
      ],
      "payable": false,
      "stateMutability": "view",
      "type": "function"
    },
    {
      "constant": true,
      "inputs": [
        {
          "name": "_candidate",
          "type": "address"
        }
      ],
      "name": "isMasternodeOwner",
      "outputs": [
        {
          "name": "",
          "type": "bool"
        }
      ],
      "payable": false,
      "stateMutability": "view",
      "type": "function"
    },
    {
      "constant": true,
      "inputs": [
        {
          "name": "_candidate",
          "type": "address"
        }
      ],
      "name": "getLastPerUser",
      "outputs": [
        {
          "name": "",
          "type": "uint256"
        }
      ],
      "payable": false,
      "stateMutability": "view",
      "type": "function"
    },
    {
      "constant": true,
      "inputs": [],
      "name": "_contract_masternode",
      "outputs": [
        {
          "name": "",
          "type": "address"
        }
      ],
      "payable": false,
      "stateMutability": "view",
      "type": "function"
    },
    {
      "constant": true,
      "inputs": [
        {
          "name": "_candidate",
          "type": "address"
        }
      ],
      "name": "getLastActiveBy",
      "outputs": [
        {
          "name": "",
          "type": "uint256"
        }
      ],
      "payable": false,
      "stateMutability": "view",
      "type": "function"
    },
    {
      "constant": true,
      "inputs": [
        {
          "name": "_candidate",
          "type": "address"
        }
      ],
      "name": "userHasActiveNodes",
      "outputs": [
        {
          "name": "",
          "type": "bool"
        }
      ],
      "payable": false,
      "stateMutability": "view",
      "type": "function"
    },
    {
      "constant": false,
      "inputs": [],
      "name": "setMasternodeCandidate",
      "outputs": [
        {
          "name": "",
          "type": "address"
        }
      ],
      "payable": false,
      "stateMutability": "nonpayable",
      "type": "function"
    },
    {
      "constant": false,
      "inputs": [
        {
          "name": "_contract",
          "type": "address"
        }
      ],
      "name": "setTokenContract",
      "outputs": [],
      "payable": false,
      "stateMutability": "nonpayable",
      "type": "function"
    },
    {
      "constant": true,
      "inputs": [],
      "name": "getFollowingCandidate",
      "outputs": [
        {
          "name": "_address",
          "type": "address"
        }
      ],
      "payable": false,
      "stateMutability": "view",
      "type": "function"
    },
    {
      "constant": true,
      "inputs": [],
      "name": "_contract_token",
      "outputs": [
        {
          "name": "",
          "type": "address"
        }
      ],
      "payable": false,
      "stateMutability": "view",
      "type": "function"
    },
    {
      "constant": true,
      "inputs": [
        {
          "name": "_candidate",
          "type": "address"
        }
      ],
      "name": "belongsToUser",
      "outputs": [
        {
          "name": "",
          "type": "uint256[]"
        }
      ],
      "payable": false,
      "stateMutability": "view",
      "type": "function"
    },
    {
      "constant": true,
      "inputs": [],
      "name": "MINING_PHASE_DURATION_BLOCKS",
      "outputs": [
        {
          "name": "",
          "type": "uint256"
        }
      ],
      "payable": false,
      "stateMutability": "view",
      "type": "function"
    },
    {
      "constant": true,
      "inputs": [],
      "name": "rewardsMasternode",
      "outputs": [
        {
          "name": "",
          "type": "uint256"
        }
      ],
      "payable": false,
      "stateMutability": "view",
      "type": "function"
    },
    {
      "constant": true,
      "inputs": [],
      "name": "masternodeIDcounter",
      "outputs": [
        {
          "name": "",
          "type": "uint256"
        }
      ],
      "payable": false,
      "stateMutability": "view",
      "type": "function"
    },
    {
      "constant": true,
      "inputs": [
        {
          "name": "_index",
          "type": "uint256"
        }
      ],
      "name": "masternodeInfo",
      "outputs": [
        {
          "name": "",
          "type": "address"
        },
        {
          "name": "",
          "type": "bool"
        },
        {
          "name": "",
          "type": "uint256"
        },
        {
          "name": "",
          "type": "uint256"
        }
      ],
      "payable": false,
      "stateMutability": "view",
      "type": "function"
    },
    {
      "constant": true,
      "inputs": [],
      "name": "userCounter",
      "outputs": [
        {
          "name": "",
          "type": "uint256"
        }
      ],
      "payable": false,
      "stateMutability": "view",
      "type": "function"
    },
    {
      "constant": false,
      "inputs": [
        {
          "name": "_newOwner",
          "type": "address"
        }
      ],
      "name": "transferOwnership",
      "outputs": [],
      "payable": false,
      "stateMutability": "nonpayable",
      "type": "function"
    },
    {
      "anonymous": false,
      "inputs": [
        {
          "indexed": false,
          "name": "candidateAddress",
          "type": "address"
        },
        {
          "indexed": false,
          "name": "timeStamp",
          "type": "uint256"
        }
      ],
      "name": "NewMasternode",
      "type": "event"
    },
    {
      "anonymous": false,
      "inputs": [
        {
          "indexed": false,
          "name": "candidateAddress",
          "type": "address"
        },
        {
          "indexed": false,
          "name": "timeStamp",
          "type": "uint256"
        }
      ],
      "name": "RemovedMasternode",
      "type": "event"
    },
    {
      "anonymous": false,
      "inputs": [
        {
          "indexed": true,
          "name": "previousOwner",
          "type": "address"
        }
      ],
      "name": "OwnershipRenounced",
      "type": "event"
    },
    {
      "anonymous": false,
      "inputs": [
        {
          "indexed": true,
          "name": "previousOwner",
          "type": "address"
        },
        {
          "indexed": true,
          "name": "newOwner",
          "type": "address"
        }
      ],
      "name": "OwnershipTransferred",
      "type": "event"
    },
    {
      "constant": false,
      "inputs": [],
      "name": "_externalArrangeFlow",
      "outputs": [],
      "payable": false,
      "stateMutability": "nonpayable",
      "type": "function"
    },
    {
      "constant": false,
      "inputs": [
        {
          "name": "_received",
          "type": "address"
        }
      ],
      "name": "_externalAddMasternode",
      "outputs": [],
      "payable": false,
      "stateMutability": "nonpayable",
      "type": "function"
    },
    {
      "constant": false,
      "inputs": [
        {
          "name": "_received",
          "type": "address"
        }
      ],
      "name": "_externalStopMasternode",
      "outputs": [],
      "payable": false,
      "stateMutability": "nonpayable",
      "type": "function"
    },
    {
      "constant": true,
      "inputs": [],
      "name": "getMiningReward",
      "outputs": [
        {
          "name": "",
          "type": "uint256"
        }
      ],
      "payable": false,
      "stateMutability": "view",
      "type": "function"
    },
    {
      "constant": false,
      "inputs": [],
      "name": "getDataFromContract",
      "outputs": [
        {
          "name": "",
          "type": "uint256"
        }
      ],
      "payable": false,
      "stateMutability": "nonpayable",
      "type": "function"
    }
  ],
  "bytecode": "0x6080604052600060065560006007556000600855611194600a556000600e60006101000a81548160ff021916908315150217905550737600bf5112945f9f006c216d5d6db0df2806edc6600e60016101000a81548173ffffffffffffffffffffffffffffffffffffffff021916908373ffffffffffffffffffffffffffffffffffffffff1602179055506000600e60156101000a81548160ff0219169083151502179055506000600e60166101000a81548160ff021916908315150217905550737600bf5112945f9f006c216d5d6db0df2806edc6600f60006101000a81548173ffffffffffffffffffffffffffffffffffffffff021916908373ffffffffffffffffffffffffffffffffffffffff160217905550336000806101000a81548173ffffffffffffffffffffffffffffffffffffffff021916908373ffffffffffffffffffffffffffffffffffffffff16021790555061243d806101636000396000f300608060405260043610610203576000357c0100000000000000000000000000000000000000000000000000000000900463ffffffff168062822599146102085780630de33210146102355780631ad93a9b1461028c5780632730e4a2146102b75780632debc549146102ce578063372210d11461033b5780633a74c05b1461038a578063448a0017146103cf578063490203a7146103fa5780634e56925f1461042557806355e97e931461048057806364ef6dd414610497578063702f5321146104c2578063715018a6146105055780637558d81e1461051c5780637d394f90146105785780638319ebfb146105bb5780638d114dd3146106535780638da5cb5b146106965780638f88a00e146106ed57806390ce082214610704578063989e5ea91461072f5780639fc75354146107dd578063a042d43e14610838578063a73c52e71461084f578063aad5b4ae146108a6578063acdee567146108fd578063b6da1fbe14610954578063bb8bedc9146109af578063bbcd5bbe14610a06578063bd8a79d514610a49578063be550be414610aa0578063c325ae4e14610af7578063c56280b114610b8f578063d230df6a14610bd2578063d632cb3e14610c15578063e1eca32714610c40578063e6f76fe814610c6b578063e7a6651814610c96578063eae445ed14610cc1578063f0c37a5914610d47578063f2fde38b14610d72575b600080fd5b34801561021457600080fd5b5061023360048036038101908080359060200190929190505050610db5565b005b34801561024157600080fd5b5061024a610f3a565b604051808273ffffffffffffffffffffffffffffffffffffffff1673ffffffffffffffffffffffffffffffffffffffff16815260200191505060405180910390f35b34801561029857600080fd5b506102a1610f60565b6040518082815260200191505060405180910390f35b3480156102c357600080fd5b506102cc610f66565b005b3480156102da57600080fd5b506102f960048036038101908080359060200190929190505050610f8b565b604051808273ffffffffffffffffffffffffffffffffffffffff1673ffffffffffffffffffffffffffffffffffffffff16815260200191505060405180910390f35b34801561034757600080fd5b50610388600480360381019080803573ffffffffffffffffffffffffffffffffffffffff169060200190929190803515159060200190929190505050610fcb565b005b34801561039657600080fd5b506103b56004803603810190808035906020019092919050505061100c565b604051808215151515815260200191505060405180910390f35b3480156103db57600080fd5b506103e461103d565b6040518082815260200191505060405180910390f35b34801561040657600080fd5b5061040f611043565b6040518082815260200191505060405180910390f35b34801561043157600080fd5b50610466600480360381019080803573ffffffffffffffffffffffffffffffffffffffff16906020019092919050505061110b565b604051808215151515815260200191505060405180910390f35b34801561048c57600080fd5b50610495611171565b005b3480156104a357600080fd5b506104ac61118e565b6040518082815260200191505060405180910390f35b3480156104ce57600080fd5b50610503600480360381019080803573ffffffffffffffffffffffffffffffffffffffff169060200190929190505050611194565b005b34801561051157600080fd5b5061051a611233565b005b34801561052857600080fd5b50610531611335565b604051808981526020018881526020018781526020018681526020018581526020018481526020018381526020018281526020019850505050505050505060405180910390f35b34801561058457600080fd5b506105b9600480360381019080803573ffffffffffffffffffffffffffffffffffffffff16906020019092919050505061137a565b005b3480156105c757600080fd5b506105e660048036038101908080359060200190929190505050611649565b604051808773ffffffffffffffffffffffffffffffffffffffff1673ffffffffffffffffffffffffffffffffffffffff1681526020018615151515815260200185151515158152602001848152602001838152602001828152602001965050505050505060405180910390f35b34801561065f57600080fd5b50610694600480360381019080803573ffffffffffffffffffffffffffffffffffffffff1690602001909291905050506116bf565b005b3480156106a257600080fd5b506106ab61175e565b604051808273ffffffffffffffffffffffffffffffffffffffff1673ffffffffffffffffffffffffffffffffffffffff16815260200191505060405180910390f35b3480156106f957600080fd5b50610702611783565b005b34801561071057600080fd5b50610719611834565b6040518082815260200191505060405180910390f35b34801561073b57600080fd5b50610770600480360381019080803573ffffffffffffffffffffffffffffffffffffffff16906020019092919050505061183a565b604051808773ffffffffffffffffffffffffffffffffffffffff1673ffffffffffffffffffffffffffffffffffffffff1681526020018615151515815260200185151515158152602001848152602001838152602001828152602001965050505050505060405180910390f35b3480156107e957600080fd5b5061081e600480360381019080803573ffffffffffffffffffffffffffffffffffffffff1690602001909291905050506118b0565b604051808215151515815260200191505060405180910390f35b34801561084457600080fd5b5061084d6119ae565b005b34801561085b57600080fd5b50610890600480360381019080803573ffffffffffffffffffffffffffffffffffffffff1690602001909291905050506119b8565b6040518082815260200191505060405180910390f35b3480156108b257600080fd5b506108bb611a63565b604051808273ffffffffffffffffffffffffffffffffffffffff1673ffffffffffffffffffffffffffffffffffffffff16815260200191505060405180910390f35b34801561090957600080fd5b5061093e600480360381019080803573ffffffffffffffffffffffffffffffffffffffff169060200190929190505050611a89565b6040518082815260200191505060405180910390f35b34801561096057600080fd5b50610995600480360381019080803573ffffffffffffffffffffffffffffffffffffffff169060200190929190505050611b2a565b604051808215151515815260200191505060405180910390f35b3480156109bb57600080fd5b506109c4611bcc565b604051808273ffffffffffffffffffffffffffffffffffffffff1673ffffffffffffffffffffffffffffffffffffffff16815260200191505060405180910390f35b348015610a1257600080fd5b50610a47600480360381019080803573ffffffffffffffffffffffffffffffffffffffff169060200190929190505050611d96565b005b348015610a5557600080fd5b50610a5e611e35565b604051808273ffffffffffffffffffffffffffffffffffffffff1673ffffffffffffffffffffffffffffffffffffffff16815260200191505060405180910390f35b348015610aac57600080fd5b50610ab5611f14565b604051808273ffffffffffffffffffffffffffffffffffffffff1673ffffffffffffffffffffffffffffffffffffffff16815260200191505060405180910390f35b348015610b0357600080fd5b50610b38600480360381019080803573ffffffffffffffffffffffffffffffffffffffff169060200190929190505050611f3a565b6040518080602001828103825283818151815260200191508051906020019060200280838360005b83811015610b7b578082015181840152602081019050610b60565b505050509050019250505060405180910390f35b348015610b9b57600080fd5b50610bd0600480360381019080803573ffffffffffffffffffffffffffffffffffffffff169060200190929190505050611fd4565b005b348015610bde57600080fd5b50610c13600480360381019080803573ffffffffffffffffffffffffffffffffffffffff169060200190929190505050611fe8565b005b348015610c2157600080fd5b50610c2a611ff4565b6040518082815260200191505060405180910390f35b348015610c4c57600080fd5b50610c55611ffa565b6040518082815260200191505060405180910390f35b348015610c7757600080fd5b50610c80612000565b6040518082815260200191505060405180910390f35b348015610ca257600080fd5b50610cab612006565b6040518082815260200191505060405180910390f35b348015610ccd57600080fd5b50610cec600480360381019080803590602001909291905050506121b4565b604051808573ffffffffffffffffffffffffffffffffffffffff1673ffffffffffffffffffffffffffffffffffffffff1681526020018415151515815260200183815260200182815260200194505050505060405180910390f35b348015610d5357600080fd5b50610d5c612252565b6040518082815260200191505060405180910390f35b348015610d7e57600080fd5b50610db3600480360381019080803573ffffffffffffffffffffffffffffffffffffffff169060200190929190505050612258565b005b6000610dc082610f8b565b90506000600460008373ffffffffffffffffffffffffffffffffffffffff1673ffffffffffffffffffffffffffffffffffffffff16815260200190815260200160002060000160146101000a81548160ff02191690831515021790555060006005600084815260200190815260200160002060000160146101000a81548160ff021916908315150217905550600460008273ffffffffffffffffffffffffffffffffffffffff1673ffffffffffffffffffffffffffffffffffffffff16815260200190815260200160002060040182815481101515610e9b57fe5b906000526020600020016000905560056000838152602001908152602001600020600080820160006101000a81549073ffffffffffffffffffffffffffffffffffffffff02191690556000820160146101000a81549060ff02191690556000820160156101000a81549060ff0219169055600182016000905560028201600090556003820160009055600482016000610f3491906123cb565b50505050565b600160009054906101000a900473ffffffffffffffffffffffffffffffffffffffff1681565b600c5481565b610f6e611783565b610f76611bcc565b50600b60008154809291906001019190505550565b60006005600083815260200190815260200160002060000160009054906101000a900473ffffffffffffffffffffffffffffffffffffffff169050919050565b600e60009054906101000a900460ff16151515610fe757600080fd5b610ff08261137a565b600115158115151415611008576110068261110b565b505b5050565b6000600560008381526020019081526020016000206002016000815480929190600101919050555060019050919050565b60095481565b6000600160009054906101000a900473ffffffffffffffffffffffffffffffffffffffff1673ffffffffffffffffffffffffffffffffffffffff1663490203a76040518163ffffffff167c0100000000000000000000000000000000000000000000000000000000028152600401602060405180830381600087803b1580156110cb57600080fd5b505af11580156110df573d6000803e3d6000fd5b505050506040513d60208110156110f557600080fd5b8101908080519060200190929190505050905090565b60006001600460008473ffffffffffffffffffffffffffffffffffffffff1673ffffffffffffffffffffffffffffffffffffffff16815260200190815260200160002060000160156101000a81548160ff02191690831515021790555060019050919050565b6001600e60006101000a81548160ff021916908315150217905550565b600b5481565b6000809054906101000a900473ffffffffffffffffffffffffffffffffffffffff1673ffffffffffffffffffffffffffffffffffffffff163373ffffffffffffffffffffffffffffffffffffffff161415156111ef57600080fd5b80600160006101000a81548173ffffffffffffffffffffffffffffffffffffffff021916908373ffffffffffffffffffffffffffffffffffffffff16021790555050565b6000809054906101000a900473ffffffffffffffffffffffffffffffffffffffff1673ffffffffffffffffffffffffffffffffffffffff163373ffffffffffffffffffffffffffffffffffffffff1614151561128e57600080fd5b6000809054906101000a900473ffffffffffffffffffffffffffffffffffffffff1673ffffffffffffffffffffffffffffffffffffffff167ff8df31144d9c2f0f6b59d69b8b98abd5459d07f2742c4df920b25aae33c6482060405160405180910390a260008060006101000a81548173ffffffffffffffffffffffffffffffffffffffff021916908373ffffffffffffffffffffffffffffffffffffffff160217905550565b6000806000806000806000806000600954600854600b54611354611043565b600c54600d54600654879750975097509750975097509750975097509091929394959697565b6001600460008373ffffffffffffffffffffffffffffffffffffffff1673ffffffffffffffffffffffffffffffffffffffff16815260200190815260200160002060000160146101000a81548160ff02191690831515021790555080600460008373ffffffffffffffffffffffffffffffffffffffff1673ffffffffffffffffffffffffffffffffffffffff16815260200190815260200160002060000160006101000a81548173ffffffffffffffffffffffffffffffffffffffff021916908373ffffffffffffffffffffffffffffffffffffffff160217905550600754600460008373ffffffffffffffffffffffffffffffffffffffff1673ffffffffffffffffffffffffffffffffffffffff16815260200190815260200160002060010181905550600160085401600460008373ffffffffffffffffffffffffffffffffffffffff1673ffffffffffffffffffffffffffffffffffffffff16815260200190815260200160002060020181905550600460008273ffffffffffffffffffffffffffffffffffffffff1673ffffffffffffffffffffffffffffffffffffffff1681526020019081526020016000206004016007549080600181540180825580915050906001820390600052602060002001600090919290919091505550600160056000600754815260200190815260200160002060000160146101000a81548160ff0219169083151502179055508060056000600754815260200190815260200160002060000160006101000a81548173ffffffffffffffffffffffffffffffffffffffff021916908373ffffffffffffffffffffffffffffffffffffffff160217905550600754600560006007548152602001908152602001600020600101819055506001600854016005600060075481526020019081526020016000206002018190555060076000815480929190600101919050555060066000815480929190600101919050555050565b60056020528060005260406000206000915090508060000160009054906101000a900473ffffffffffffffffffffffffffffffffffffffff16908060000160149054906101000a900460ff16908060000160159054906101000a900460ff16908060010154908060020154908060030154905086565b6000809054906101000a900473ffffffffffffffffffffffffffffffffffffffff1673ffffffffffffffffffffffffffffffffffffffff163373ffffffffffffffffffffffffffffffffffffffff1614151561171a57600080fd5b80600360006101000a81548173ffffffffffffffffffffffffffffffffffffffff021916908373ffffffffffffffffffffffffffffffffffffffff16021790555050565b6000809054906101000a900473ffffffffffffffffffffffffffffffffffffffff1681565b600080600080611791611043565b9350600a8054600b548115156117a357fe5b04029250600a8310156117d35760056064858115156117be57fe5b0402600c819055506000600d8190555061182e565b605a83111561180d5760026064858115156117ea57fe5b0402600c81905550606260648581151561180057fe5b0402600d8190555061182e565b8260648581151561181a57fe5b04029150818403905061182d81836122bf565b5b50505050565b60085481565b60046020528060005260406000206000915090508060000160009054906101000a900473ffffffffffffffffffffffffffffffffffffffff16908060000160149054906101000a900460ff16908060000160159054906101000a900460ff16908060010154908060020154908060030154905086565b600080600460008473ffffffffffffffffffffffffffffffffffffffff1673ffffffffffffffffffffffffffffffffffffffff1681526020019081526020016000206004018054905011151561190957600090506119a9565b8173ffffffffffffffffffffffffffffffffffffffff16600460008473ffffffffffffffffffffffffffffffffffffffff1673ffffffffffffffffffffffffffffffffffffffff16815260200190815260200160002060000160009054906101000a900473ffffffffffffffffffffffffffffffffffffffff1673ffffffffffffffffffffffffffffffffffffffff1614156119a857600190506119a9565b5b919050565b6119b6610f66565b565b6000600460008373ffffffffffffffffffffffffffffffffffffffff1673ffffffffffffffffffffffffffffffffffffffff1681526020019081526020016000206004016001600460008573ffffffffffffffffffffffffffffffffffffffff1673ffffffffffffffffffffffffffffffffffffffff1681526020019081526020016000206004018054905003815481101515611a5157fe5b90600052602060002001549050919050565b600360009054906101000a900473ffffffffffffffffffffffffffffffffffffffff1681565b60008060008090505b600460008573ffffffffffffffffffffffffffffffffffffffff1673ffffffffffffffffffffffffffffffffffffffff16815260200190815260200160002060040180549050811015611b2057600115156005600083815260200190815260200160002060000160149054906101000a900460ff1615151415611b13578091505b8080600101915050611a92565b8192505050919050565b60008060008090505b600460008573ffffffffffffffffffffffffffffffffffffffff1673ffffffffffffffffffffffffffffffffffffffff16815260200190815260200160002060040180549050811015611bc257600115156005600083815260200190815260200160002060000160149054906101000a900460ff1615151415611bb557600191505b8080600101915050611b33565b8192505050919050565b60008060008091505b6000611bdf611e35565b73ffffffffffffffffffffffffffffffffffffffff161415611ca657600682101515611c73576040517f08c379a00000000000000000000000000000000000000000000000000000000081526004018080602001828103825260148152602001807f4661696c73616665207377697463686564206f6e00000000000000000000000081525060200191505060405180910390fd5b6005821415611c855760009250611d91565b60016008540160088190555060006009819055508180600101925050611bd5565b6001600754036009541415611cca5760016008540160088190555060006009819055505b60095490505b600754811015611d80576005600082815260200190815260200160002060000160149054906101000a900460ff1615611d735760085460056000838152602001908152602001600020600201541415611d7257611d2c8161100c565b50806009819055506005600082815260200190815260200160002060000160009054906101000a900473ffffffffffffffffffffffffffffffffffffffff169250611d91565b5b8080600101915050611cd0565b600160085401600881905550600092505b505090565b6000809054906101000a900473ffffffffffffffffffffffffffffffffffffffff1673ffffffffffffffffffffffffffffffffffffffff163373ffffffffffffffffffffffffffffffffffffffff16141515611df157600080fd5b80600260006101000a81548173ffffffffffffffffffffffffffffffffffffffff021916908373ffffffffffffffffffffffffffffffffffffffff16021790555050565b60008060008060085492506009549150600160075403821415611e5d57600183019250600091505b60095490505b600754811015611f03576005600082815260200190815260200160002060000160149054906101000a900460ff1615611ef6578260056000838152602001908152602001600020600201541415611ef5578091506005600082815260200190815260200160002060000160009054906101000a900473ffffffffffffffffffffffffffffffffffffffff169350611f0e565b5b8080600101915050611e63565b600183019250600093505b50505090565b600260009054906101000a900473ffffffffffffffffffffffffffffffffffffffff1681565b6060600460008373ffffffffffffffffffffffffffffffffffffffff1673ffffffffffffffffffffffffffffffffffffffff168152602001908152602001600020600401805480602002602001604051908101604052809291908181526020018280548015611fc857602002820191906000526020600020905b815481526020019060010190808311611fb4575b50505050509050919050565b611fe5611fe0826119b8565b610db5565b50565b611ff18161137a565b50565b600a5481565b600d5481565b60075481565b6000806000806000806000806000806000809054906101000a900473ffffffffffffffffffffffffffffffffffffffff1673ffffffffffffffffffffffffffffffffffffffff163373ffffffffffffffffffffffffffffffffffffffff1614151561207057600080fd5b600f60009054906101000a900473ffffffffffffffffffffffffffffffffffffffff1698508873ffffffffffffffffffffffffffffffffffffffff16637558d81e6040518163ffffffff167c010000000000000000000000000000000000000000000000000000000002815260040161010060405180830381600087803b1580156120fa57600080fd5b505af115801561210e573d6000803e3d6000fd5b505050506040513d61010081101561212557600080fd5b810190808051906020019092919080519060200190929190805190602001909291908051906020019092919080519060200190929190805190602001909291908051906020019092919080519060200190929190505050975097509750975097509750975097508560088190555084600b8190555082600c8190555081600d8190555050505050505050505090565b6000806000806005600086815260200190815260200160002060000160009054906101000a900473ffffffffffffffffffffffffffffffffffffffff166005600087815260200190815260200160002060000160149054906101000a900460ff166005600088815260200190815260200160002060010154600560008981526020019081526020016000206002015493509350935093509193509193565b60065481565b6000809054906101000a900473ffffffffffffffffffffffffffffffffffffffff1673ffffffffffffffffffffffffffffffffffffffff163373ffffffffffffffffffffffffffffffffffffffff161415156122b357600080fd5b6122bc816122d1565b50565b80600d8190555081600c819055505050565b600073ffffffffffffffffffffffffffffffffffffffff168173ffffffffffffffffffffffffffffffffffffffff161415151561230d57600080fd5b8073ffffffffffffffffffffffffffffffffffffffff166000809054906101000a900473ffffffffffffffffffffffffffffffffffffffff1673ffffffffffffffffffffffffffffffffffffffff167f8be0079c531659141344cd1fd0a4f28419497f9722a3daafe3b4186f6b6457e060405160405180910390a3806000806101000a81548173ffffffffffffffffffffffffffffffffffffffff021916908373ffffffffffffffffffffffffffffffffffffffff16021790555050565b50805460008255906000526020600020908101906123e991906123ec565b50565b61240e91905b8082111561240a5760008160009055506001016123f2565b5090565b905600a165627a7a72305820ff5db0008992ee18e8bbd2aed704028071d628bab249a9cdbdbef82a722964690029",
  "source": "pragma solidity ^0.4.25;\r\n\r\nimport \"./interfaces/ICaelumMiner.sol\";\r\nimport \"./CaelumMasternodeImproved.sol\";\r\nimport \"./CaelumModifier.sol\";\r\n\r\ncontract CaelumMasternode is CaelumMasternodeImproved {\r\n\r\n    bool minerSet = false;\r\n    bool tokenSet = false;\r\n\r\n    /**\r\n     * @dev Use this to externaly call the _arrangeMasternodeFlow function. ALWAYS set a modifier !\r\n     */\r\n    function _externalArrangeFlow()  public {\r\n        _arrangeMasternodeFlow();\r\n    }\r\n\r\n    /**\r\n     * @dev Use this to externaly call the addMasternode function. ALWAYS set a modifier !\r\n     */\r\n    function _externalAddMasternode(address _received) external {\r\n        addMasternode(_received);\r\n    }\r\n\r\n    /**\r\n     * @dev Use this to externaly call the deleteMasternode function. ALWAYS set a modifier !\r\n     */\r\n    function _externalStopMasternode(address _received) external {\r\n        deleteMasternode(getLastPerUser(_received));\r\n    }\r\n\r\n    function getMiningReward() public view returns(uint) {\r\n        return ICaelumMiner(_contract_miner).getMiningReward();\r\n    }\r\n\r\n    address cloneDataFrom = 0x7600bF5112945F9F006c216d5d6db0df2806eDc6;\r\n\r\n    function getDataFromContract () onlyOwner public returns(uint) {\r\n\r\n        CaelumMasternode prev = CaelumMasternode(cloneDataFrom);\r\n        (uint epoch,\r\n        uint candidate,\r\n        uint round,\r\n        uint miningepoch,\r\n        uint globalreward,\r\n        uint powreward,\r\n        uint masternodereward,\r\n        uint usercounter) = prev.contractProgress();\r\n\r\n        //masternodeEpoch = epoch;\r\n        masternodeRound = round;\r\n        miningEpoch = miningepoch;\r\n        rewardsProofOfWork = powreward;\r\n        rewardsMasternode = masternodereward;\r\n\r\n    }\r\n\r\n}\r\n",
  "sourcePath": "C:\\Users\\steve\\Documents\\GitHub\\CAELUM\\Caelum-token\\contracts\\CaelumMasternode.sol",
  "compiler": {
    "name": "solc",
    "version": "0.4.25+commit.59dbf8f1.Emscripten.clang"
  },
  "schemaVersion": "2.0.1",
  "updatedAt": "2018-10-28T12:36:48.579Z"
}